:020000040800F2
:10000000F8FF0320E50A000C830F000C7315000CA9
:100010007317000CA317000C6B18000C6F18000C62
:100020000000000000000000000000006F18000C3D
:10003000A716000C000000006F18000C6F18000CD1
:100040006F18000C6F18000C6F18000C6F18000C64
:100050006F18000C6F18000C6F18000C6F18000C54
:100060006F18000C6F18000C6F18000C6F18000C44
:100070006F18000C6F18000C6F18000C6F18000C34
:1002B0006F18000C6F18000CF8FF0320E50A000C03
:1002C000830F000C7315000C7317000CA317000CA0
:1002D0006B18000C6F18000C0000000000000000FC
:1002E000000000006F18000CA716000C00000000B2
:1002F0006F18000C6F18000C6F18000C6F18000CB2
:100300006F18000C6F18000C6F18000C6F18000CA1
:100310006F18000C6F18000C6F18000C6F18000C91
:100320006F18000C6F18000C6F18000C6F18000C81
:020000040A00F0
:1000400000000000FFFFFFFF07000000FF050000A9
:100054000F0F00007000000002000000000000000C
:100064000202000000000000000000000000000088
:10007400000000000001010040000000FFFFFFFF3E
:0400A000FFFFFFFF60
:0C200000000000400100FEFFFFFFFFFF9A
:10202000FFFFFFFFFFFFFFFFFFFFFFFFFFFFFFFFC0
:10203000FFFFFFFFFFFFFFFFFFFFFFFFFFFFFFFFB0
:10204000FFFFFFFFFFFFFFFFFFFFFFFFFFFFFFFFA0
:10205000FFFFFFFFFFFFFFFFFFFFFFFFFFFFFFFF90
:10206000FFFFFFFFFFFFFFFFFFFFFFFFFFFFFFFF80
:10207000FFFFFFFFFFFFFFFFFFFFFFFFFFFFFFFF70
:10208000FFFFFFFFFFFFFFFFFFFFFFFFFFFFFFFF60
:10209000FFFFFFFFFFFFFFFFFFFFFFFFFFFFFFFF50
:1020A000FFFFFFFFFFFFFFFFFFFFFFFFFFFFFFFF40
:1020B000FFFFFFFFFFFFFFFFFFFFFFFFFFFFFFFF30
:1020C000FFFFFFFFFFFFFFFFFFFFFFFFFFFFFFFF20
:1020D000FFFFFFFFFFFFFFFFFFFFFFFFFFFFFFFF10
:1020E0000607000004CF0F0036F70707863A000006
:1020F000FF0300003F000000BF000000FFFFFFFFE4
:04210000FFFFFFFFDF
:10211000FFFFFFFFFFFFFFFFFFFFFFFFFFFFFFFFCF
:04212000FFFFFFFFBF
:108000000000FFFF0000FFFF0000FFFF0000FFFF78
:108010000000FFFF0000FFFF0000FFFF0000FFFF68
:10802000FFFFFFFFFFFFFFFFFFFFFFFFFFFFFFFF60
:10803000FFFFFFFFFFFFFFFFFFFFFFFFFFFFFFFF50
:1080400044000000FFFFFFFF07000000FF050000E5
:108054000F0F00007000000002000000000000008C
:108064000202000000000000000000000000000008
:10807400000000000001010040000000FFFFFFFFBE
:0480A000FFFFFFFFE0
:0CA00000000000400000FFFFFFFFFFFF1A
:10A02000FFFFFFFFFFFFFFFFFFFFFFFFFFFFFFFF40
:10A03000FFFFFFFFFFFFFFFFFFFFFFFFFFFFFFFF30
:10A04000FFFFFFFFFFFFFFFFFFFFFFFFFFFFFFFF20
:10A05000FFFFFFFFFFFFFFFFFFFFFFFFFFFFFFFF10
:10A06000FFFFFFFFFFFFFFFFFFFFFFFFFFFFFFFF00
:10A07000FFFFFFFFFFFFFFFFFFFFFFFFFFFFFFFFF0
:10A08000FFFFFFFFFFFFFFFFFFFFFFFFFFFFFFFFE0
:10A09000FFFFFFFFFFFFFFFFFFFFFFFFFFFFFFFFD0
:10A0A000FFFFFFFFFFFFFFFFFFFFFFFFFFFFFFFFC0
:10A0B000FFFFFFFFFFFFFFFFFFFFFFFFFFFFFFFFB0
:10A0C000FFFFFFFFFFFFFFFFFFFFFFFFFFFFFFFFA0
:10A0D000FFFFFFFFFFFFFFFFFFFFFFFFFFFFFFFF90
:10A0E0000607000004CF0F0036F70707863A000086
:10A0F000FF0300003F000000BF000000FFFFFFFF64
:04A10000FFFFFFFF5F
:10A11000FFFFFFFFFFFFFFFFFFFFFFFFFFFFFFFF4F
:04A12000FFFFFFFF3F
:020000040C00EE
:100000000844714672467346B7EE000AF7EE000ADE
:10001000B7EE001AF7EE001AB7EE002AF7EE002A44
:10002000B7EE003AF7EE003AB7EE004AF7EE004AB4
:10003000B7EE005AF7EE005AB7EE006AF7EE006A24
:10004000B7EE007AF7EE007A8EF3008C10B4F1EE82
:1000500010CA4FF66074C0F6FF740CEA040CE1EEAF
:1000600010CA10BCF446744708B500F06FFCBDE838
:1000700008407046714672467346B7EE000AF7EEC6
:10008000000AB7EE001AF7EE001AB7EE002AF7EEF4
:10009000002AB7EE003AF7EE003AB7EE004AF7EE64
:1000A000004AB7EE005AF7EE005AB7EE006AF7EED4
:1000B000006AB7EE007AF7EE007A8EF3008C10B487
:1000C000F1EE10CA4FF66074C0F6FF740CEA040C2F
:1000D000E1EE10CA10BCF44674470000F8B500BF4A
:1000E000F8BC08BC9E4670470513000CF8B500BF6D
:1000F000F8BC08BC9E467047E112000C2DE9F041A7
:100100000646AEB015460027059105990B78002BE1
:1001100000F0FA8000244FF0FF33CDE909430EAB25
:100120000B940C9380230D930B5D0BB1252B26D1E3
:1001300034B12246304601F032F9059B2344059341
:10014000059B1A78252A40F0D78003F10108CDF8E5
:100150001480059803782B2B1AD025D8202B1BD080
:10016000232B1DD02A2B27D001F098F80B90059B4C
:100170001A78303A092A2ED801330593F7E701346B
:10018000D2E7099B43F00103013009930590E0E7B2
:10019000099B43F00403F7E7099B43F00803F3E7E7
:1001A000099B43F01003EFE72D2BEAD0302BD9D178
:1001B000099B43F00203E7E72B6801301A1D1B6817
:1001C0000590002B2A600B9305DA099A5B4282F0B6
:1001D00001020B930992099BDA0744BF23F0020343
:1001E0000993059B1A782E2A0DD10022581C0A92D9
:1001F00005905A782A2A25D1023305932B681A1DB7
:100200001B682A600A9305A801F002F9059B039078
:10021000187801F007FB6928039979D032DC63284C
:1002200000F0CB8019DC252800F0D980612853D05C
:1002300000234FF0FF32CDF8148009930B930A92FC
:100240000093D4E001F02AF80A90059B1A78303A1E
:10025000092AD8D801330593F7E7642858D06728CE
:10026000E6DC2A4606A801F09BF9002800F0A180F0
:10027000059B09A930465A1C059206AA1B7801F075
:10028000F2FA38E0702873D015DC6E2800F08C800C
:100290006F28CDD12B46002206A800F0CDFB002808
:1002A00000F08780059B06AA09A930460133059313
:1002B00001F0D7FA1FE075283AD0782848D0732883
:1002C000B6D1802975D1059B2A6801330593131D8A
:1002D0002B60002312687DE02A4606A801F060F931
:1002E000002866D0059B09A930465A1C059206AA2B
:1002F0001B7801F0B8FA04443C44A7427ADD3E4B37
:100300004F224FF0FF371A6038462EB0BDE8F0811B
:100310002B46012206A800F08FFB002849D0059B40
:1003200006AA09A930460133059301F09AFAE2E7DB
:100330002B46002206A800F07FFB002839D0059B41
:1003400006AA09A930460133059301F08AFAD2E7DB
:100350002B46002206A800F06FFB50B3059B5A1CE9
:1003600005921B7806AA09A9304600F0E1F9C2E718
:100370002B460022F02106A800F05EFBC8B1059BC9
:1003800001330593DDE9062313430BD11B4801F02C
:10039000F1F9099B0246194900930B9B304600F086
:1003A0008FFCA8E77823DDE72B463A1906A800F072
:1003B00005FD059B013305939EE78029F9D1059B37
:1003C000013305932B681A1D1B682A6006AA8DF855
:1003D0001830012309A9304600F0ECFE8BE7802994
:1003E000E7D1059B01330593099B00930B9B0122E9
:1003F0000349D3E7274688E68C020020DE16000C6E
:10040000E416000C2DE9F04F85B0019001A800F032
:1004100087FF002803DA002005B0BDE8F08F019BBC
:100420001B095D1E202D0FD9023B5B4AB3F5007FEF
:1004300035BF02EBD30302EBD31313F8045C13F8BC
:10044000045C34BF013511350123A5F12001C5F14C
:100450002002524F03FA01F903FA05F823FA02F2D7
:10046000D8F1000849EA020969EB4909D7E90023F4
:1004700002EA080A03EA090B5AEA0B0343D1019B7B
:1004800003A81033039301F081F918B9444B0C22EF
:100490001A60C1E7D7F80852A84206D0039B00F1C2
:1004A0001005103B039301238360039B0121B5F1E9
:1004B000080405EB030243F0010342F8041C42F870
:1004C000083CC7F8082245F8043CA4D0204601F0B7
:1004D00022F888B155F8083C55F8041C23F00103B4
:1004E000E31A5A6822F001020A445A6055F8041CC3
:1004F00021F0010162501C462046019900F0DAFF0C
:1005000004F1080088E75046234A264BBAF1000F51
:1005100034D1CBF1000101EA0B014B4302EBD36371
:1005200093F83C602036304601F0BEF8731C57F853
:10053000334007EBC303083B9C4297D0272E26DDB0
:100540000235AE4201DC3F2E21D16168019A21F0D3
:1005500001018D1A284600F03FFF864217D1A318EB
:10056000E068A66842F00102D8609E6083609868E7
:10057000C360C3E9002565506260BDE7CAF10001B0
:1005800001404B4302EBD36393F83C60CBE7314629
:10059000204600F085FDAFE7FC10000C00000020B5
:1005A0008C02002029E66B074669726D77617265DF
:1005B000204D657461646174613A202530386C782F
:1005C000202C202530386C782C202530386C782C65
:1005D000202530386C780D0A0000000020202020F3
:1005E0002020202020202020202020202020202506
:1005F00030386C78202C202530386C782C20253031
:10060000386C780D0A0000004745542053424320BF
:100610003A0000002044495341424C4544200D001B
:100620002053494D554C54414E454F5553200D00D4
:100630002053455155454E5449414C200D00000072
:1006400053454355524520424F4F5420495320446F
:10065000495341424C45442C204E45454420544F7B
:10066000204C4F4144204649524D57415245200DA0
:100670000000000053494D554C54414E454F5553D1
:100680002053454355524520424F4F542069732013
:10069000454E41424C45440D000000005345515524
:1006A000454E5449414C2053454355524520424FF5
:1006B0004F5420697320454E41424C45440D000083
:1006C0004649414E4C495A452053454355524520D1
:1006D000424F4F54200D0000534543555245204290
:1006E0004F4F5420495320444F4E452045495448CC
:1006F000455220574159202C20474554534243200E
:100700000D000000454E5445524544205341464596
:10071000204D4F4445200D0053454355524520423E
:100720004F4F5420495320504153534544200D000E
:100730002DE9F04F0E4649688BB083460029356895
:10074000D6F80890ACBF25F002050121F768CDE985
:10075000032315F010030593039BD3E900232FD047
:1007600052EA03002CD0A9F1020815F00800346900
:100770008A46089004F1FF344FF0000018BF08F1DA
:10078000FF383855012C1DDC059B002B53D1089BED
:1007900013B1013C20233B5532694B460095391972
:1007A000013A5846121B00F08BFADBF80430DB05E7
:1007B00003D573689842B8BF18460BB0BDE8F08FF8
:1007C000C846D2E752EA030009D1BAF1000F06DCAD
:1007D000A8EB010050440028D6DDA807D4D502F0CC
:1007E0000F00013C0928D4BF00F1300E00F1570E74
:1007F0000498A0F1410CBCF1190F10D84EF0200C58
:10080000ACF1610CBCF1190F09D870460991CDE922
:10081000062301F00EF809998646DDE90623100942
:1008200007F804E04FEA131C0AF1FF3A40EA0370AC
:1008300063460246A6E7039BD3E9000150EA0103A1
:10084000A5D03A19049B023C02F8013C30233B55E9
:100850009DE770472DE9F84300286AD050F8043C22
:10086000A0F1080423F00107E6193268934200D092
:10087000FFDE726823681340DA070FD4204600F0C9
:100880004AFE002857D1304600F05DFE0028F0D027
:10089000736823F001031F441E44EAE747F0010395
:1008A00038466360336000F097FD054600F0FCFEBB
:1008B000236872681340DB07E0D5DFF88CE0C5F1F0
:1008C000200CA5F1200201210023DEE9008928FA8D
:1008D00005F009FA0CFC29FA02F240EA0C00104378
:1008E00000EA0102C5F1200013437346A5F120027E
:1008F00012D121FA00F001FA02F2A94042EA000204
:100900001EBFDEF800000143CEF8001022B1DEF871
:1009100004100A43CEF80420681C6760376003EBBC
:10092000C003A3F10802A2605A68E2605C60E36859
:100930009C60BDE8F883236823F00103E41A636830
:1009400023F001031F449EE70000002010B54FF084
:1009500090431B6813F0020F04D143F002034FF0E1
:10096000904213604FF0904463692A4800F00AFBFC
:1009700000F0F2FE6369C3F30212012A0CD0022ACE
:100980003AD0254800F036FE4FF090435B69C3F340
:100990000233052B36D010BDC3F30233012B20D018
:1009A0004FF090435B6913F0010F05D04FF0904278
:1009B000536913F0010FFBD14FF09043D3F844314A
:1009C00013F4801F14D0154800F014FE00F0C4FE8C
:1009D000134800F00FFE012000F0C2FC00F0B0F957
:1009E000D2E7104800F006FE0A4800F07CFDF5E76B
:1009F0000D4800F0FFFDEBE70C4800F0FBFD00F0B8
:100A00009FF9C1E70A4800F0F5FD0A4B01221A6080
:100A1000C1E700BF00F80D0C0407000C7406000CC1
:100A2000C006000C4006000C9C06000CD806000C0A
:100A30001807000C80020020882910B536D012DC7F
:100A4000812943D003DC802940D0002010BD8229B9
:100A50000ED08429F9D1196802B30A1D1A60B1F9C0
:100A60000020D3171EE0A0292BD00BDC9029ECD15D
:100A70001968073121F0070101F108021A60D1E974
:100A800000230FE0C02901D0F029DED11A68111D22
:100A90001960136803600023436005E00A1D1A60B3
:100AA0000A880023C0E900230120CFE7196822B19A
:100AB0000A1D1A6091F90020D3E70A1D1A600A780E
:100AC000EFE71A68111D12681960CAE719681AB1B0
:100AD0000A1D1A600A68C4E70C1D1C600B68C0E997
:100AE0000032E1E708B51F4B98471F4B9847EFF3DB
:100AF000108172B61D4BD3F8882042F47002C3F8FF
:100B00008820D3F88C2042F44062C3F88C20184A25
:100B1000536843F07C435360BFF34F8FBFF36F8F35
:100B200001B962B6134A936823F001039360134638
:100B3000DA6812F0010FFBD10E4B24225A60012219
:100B40009A6000F063FB0C4B23F07F03074A93602D
:100B50000A4B98470A4B98470A4B984700F06CF9A4
:100B6000FEE700BF6D18000C6D18000C00ED00E0F2
:100B700030EF00E000808044000000084510000CC9
:100B80006D18000C6D18000C5C0200201C000000A9
:100B900000000000800200200400000000000000AF
:100BA000B4020020040000000100000000F80D0C59
:100BB0008402002004000000000000000C0200205D
:100BC0005000000000000000000000200C020000A7
:100BD000000000009402002020000000010000003E
:100BE0000100000003000000000000000000000001
:100BF000000000000000000000000000780200205B
:100C00007802002008000000000000008802002098
:100C10000C000000000000000000000000000000C8
:100C200066666666666666661F4B01221A611F4A23
:100C3000D36943F48033D361D36813F4807FFBD04E
:100C40001B4B0C229A64F0225A640022DA661A4680
:100C5000936F13F0400FFBD1154A8823D364136CB4
:100C600043F4206343F002031364136913F0807F9D
:100C7000FBD0104B104A1A621A46536813F0040F47
:100C8000FBD10C4B0D4A5A621A46536813F0080FF9
:100C9000FBD1084B4122C3F8E8201A46D2F8E830CD
:100CA00013F0400FFAD0704700E000440080004489
:100CB00000C00044000001440601010006010200DA
:100CC0002DE9FF471D460C9B06468A4613F0010995
:100CD000144601D195420BD822465146304600F0C9
:100CE0005EFBA54204D82546284604B0BDE8F0873F
:100CF0002F1B20216846102F3A46B84628BF1022E5
:100D000000F064FDB8F10F0F11D83B096FF00F022E
:100D10006946304602FB037200F041FBB9F1000F57
:100D2000E2D122465146304600F039FBDCE7102282
:100D300069463046A8F1100800F031FBE2E7704741
:100D400070B52020FFF75EFB04461E220021023012
:100D500000F03CFD102020802023A370002323718D
:100D60006371FFF74FFB06460146204600F038FD51
:100D7000F5680E4800F064FC012D0ED04DB1022D37
:100D80000FD02046FFF766FD3046FFF763FD28468B
:100D900070BD074800F02EFCF3E7064800F02AFC7F
:100DA000EFE7054800F026FCEBE700BF0806000C63
:100DB0001406000C2006000C3006000C842910B527
:100DC00023D00CDC812903D0822913D080290BD1B8
:100DD00019680C1D1C600B6803601A6013E09029F1
:100DE00021D003DC882917D0002010BDA029EFD026
:100DF000C029ECE719680C1D1C600B68D117036053
:100E00001046C3E900010120EFE719680C1D1C60C2
:100E10000B6803601A80F6E719680C1D1C600B68EC
:100E200003601A70EFE719680C1D1C60D31709687E
:100E30000160C1E90023E6E710B582B04FF04163DD
:100E40001C68002000F01FFCB4F1FF3F2DD084F39C
:100E50008888164B1B680193019C64086400204637
:100E6000214622462346B7EE000AF7EE000AB7EE07
:100E7000001AF7EE001AB7EE002AF7EE002AB7EED6
:100E8000003AF7EE003AB7EE004AF7EE004AB7EE46
:100E9000005AF7EE005AB7EE006AF7EE006AB7EEB6
:100EA000007AF7EE007A00F057F9FEE70400100C24
:100EB000194B012283F8582083F85A20022283F824
:100EC0003C2083F83D200022DA664FF00071C3F821
:100ED00080104FF0C061C3F8901083F8D92006202D
:100EE00083F8DA0083F8BC2083F8BD20C3F8EC1047
:100EF000C3F86C214FF48011C3F880110431C3F89A
:100F0000901183F8C20183F8D42183F8B12183F8CA
:100F1000BA21C3F8EC117047001080444FF09043A1
:100F2000D3F840215B6913F0010F0DD012F4801F3C
:100F30000AD14FF09043D3F840115A6912F0010FD3
:100F400002D011F4801FF6D0038801684FF0904260
:100F5000C2F85011043B9BB28BB110B401224FF088
:100F6000904450F82210C4F800110132D2B2043B70
:100F70009BB2002BF5D101205DF8044B7047012096
:100F80007047FEE7F0B583B006462020FFF73AFA37
:100F900004460023438014220280202282700371C1
:100FA0000125457106610E4F386883684268016803
:100FB0000C4EC0680090304600F042FB39688B69E7
:100FC0004A69096906F1340000F03AFB2046FFF750
:100FD000A5FF2046FFF73EFC284603B0F0BD00BF4A
:100FE000B4020020A805000C30B404464FF0904332
:100FF000D3F84421586912F4801F1ED1D3F844213C
:10100000586912F4801FF9D0C0F303400C4B1A68E2
:101010002260043A92B272B101234FF0904503F17D
:10102000400155F8211044F823100133DBB2043A93
:1010300092B2002AF3D130BC7047C0F30340E5E719
:101040005401004838B50E4A00230E4C13600E4A76
:101050000E4D13600E4A13600E4A13600E4A136061
:101060000E4A536213610123936000F0D3FB00F03A
:10107000FFFBAC4200D338BD54F8043B9847F8E777
:1010800088020020E800000C18020020EC00000C90
:10109000140200200C020020100200201C0200207C
:1010A00070B5D0E90245A54217D10122A1F1200374
:1010B000C1F1200602FA03F322FA06F68A4033430E
:1010C000D643DB431AB10C490A6832400A605A1C05
:1010D0001FBF094A51680B4053604368AC6043F03E
:1010E000010223F00103E56042601844036843F005
:1010F0000103036070BD00BF0000002020212223F7
:10110000242425252626272728282828292929296F
:101110002A2A2A2A2B2B2B2B2C2C2C2C2C2C2C2C1B
:101120002D2D2D2D2D2D2D2D2E2E2E2E2E2E2E2EE7
:101130002F2F2F2F2F2F2F2F000117021D181303D2
:101140001E1B190B1408040D1F161C121A0A070C7B
:101150001511090610050F0E2DE9E04F2746A04690
:10116000A146A246A346A4462DED108B4FF00005E4
:1011700045EC185B45EC195A45EC1A5A45EC1B5ADC
:1011800045EC1C5A45EC1D5A45EC1E5A45EC1F5ABD
:10119000F1EE105A4FF66076C0F6FF763540E1EE7C
:1011A000105A84F3008825462646A447BDEC108BD0
:1011B000BDE8E08F2DE9FF41134D064602ACD1F8A2
:1011C00000802868AF88002A18BF144602901A468B
:1011D000A879ADF80C708DF80E00D1E901571BB954
:1011E000204600F0C7FA0246002D02DBAA4228BFC3
:1011F0002A463B462146CDF800803046FFF760FD89
:1012000004B0BDE8F08100BF5018000C0E4B002167
:101210000E4A70B5934208D30D484FF6FF760D4D38
:10122000016829B943681BB970BD03F8011BF1E7D8
:10123000836800F10C0442683340204655F823309F
:10124000984704EB8000EBE700000020000000203E
:10125000880B000CA417000CD0B110B40446C9B11F
:10126000084421460C4A6442137E13F0010FFBD060
:10127000536803F00703012B14BF0B7834F81130C7
:10128000936201318142EFD101205DF8044B704738
:10129000002070470120F8E70020004510B50278D3
:1012A00003460130202AFAD0A2F109010429F6D917
:1012B0002B2A07D02D2A11D101210133013B002017
:1012C0000A2403E00021F8E76043801A13F8012F95
:1012D000303A092AF8D901B9404210BD0021EDE7A2
:1012E00010B5054C227832B9044B13B1044800E024
:1012F00000BF0123237010BD5C020020000000002D
:101300000000000008B5034B1BB10349034800E08F
:1013100000BF08BD000000006002002000000000C7
:101320000C4A036810B5546A591E0B4A121B8A42B4
:101330000AD22BB1094B0C224FF0FF301A6010BDBE
:10134000102202600020FAE7173323F00F03036036
:10135000F8E700BF1C020020EFFFFF7F8C02002097
:1013600070B505462020FFF74DF804460023438062
:101370001422028003710323437105611020FFF7DB
:1013800041F805460146204600F02AFAAE6820469C
:10139000FFF760FA2846FFF75DFA304670BD38B5B2
:1013A00043680446154613F4807F10D003694069F2
:1013B0009A4228BF1D462A4600F0B2F922696369A5
:1013C0002B44551B0022636125611A7038BDDB0672
:1013D000FCD400F041FAF9E700090138202813D9BC
:1013E000B0F5007F05D2094B03EBD00010F8040CD8
:1013F0007047B0F5E05F06D8044B03EBD01010F84F
:10140000040C103070473F20704700BFFC10000CE8
:1014100000230C4A30B512F8134024B902EB430301
:101420005B78184630BD01680D78A54209BF02EB14
:101430004303013301315B7814BFDBB201600A2B37
:10144000E9D9EEE7C816000C07B54A68C0B20B46EA
:10145000D2058DF8070006D54A69511C59611070F4
:1014600003B05DF804FB01220DF10701184600F0FE
:10147000F3F910B19DF80700F2E74FF0FF30EFE706
:101480000A4B0B4A1A604FF622029A814FF44032FF
:101490005A601A46D369002BFCD1044A136843F002
:1014A00002031360D369002BFCD170470020004574
:1014B00004011240426822F00102531A102B10B4AA
:1014C0000ED9441843F0010341F00101636021602B
:1014D0008350416004F108005DF8044BFFF7BAB98E
:1014E0005DF8044B704738B505462020FEF78AFFAB
:1014F000044600234380142202802022827003715C
:10150000012343710561FFF709FD2046FFF7A2F9AA
:1015100000F022F938BD70B505462C68E30701D507
:1015200000200FE02046FFF757FF064600F0BCF80A
:101530002868A042F1D120F001003146281AFFF7B7
:10154000AFFD012070BD70B505466C68E30701D59D
:1015500000200DE02046FFF73FFF064600F0A4F80C
:101560006B68A342F1D128463146FFF799FD01206F
:1015700070BDFEE7074B0246196809B906491960B4
:101580001868064902448A4294BF1A604FF0FF303F
:10159000704700BF90020020C0020020C00400205D
:1015A000802910DB812901DD83290CD113680733E1
:1015B00023F0070303F108011160D3E90023C0E918
:1015C0000023012070470020704770B5002902FBFE
:1015D00001F614460D4618BF144601463246184619
:1015E00008BF002400F038F9864218BFB0FBF5F4BC
:1015F000204670BD10B5084C2368196800F032F819
:10160000002807DB23680A20196800F01DF9C00FC5
:10161000404210BD0120FBE7B0020020074AD3681A
:1016200023F4E0631B041B0C43F0BF6343F400335B
:10163000D360BFF35F8F62B6704700BF00ED00E07C
:101640000FB4074B07B504AA1B6852F8041B1868AF
:10165000019200F073F803B05DF804EB04B070473A
:10166000B002002070B50E46054600F083F804462F
:101670000246334601212846FFF7A7FF001B18BF8B
:101680004FF0FF3070BD08B5FFF712FCFFF7CCFA42
:10169000FFF755FB00F0B6F8FFF7F2FEFFF7D9F8B9
:1016A000FFF7BCFF08BDFEE7064B013053F83020C2
:1016B0003AB9C100A1F1080219441A444A6043F83A
:1016C000302070470000002068076C094C836A9046
:1016D00074A07AC00080688800846C820081286EC3
:1016E000696C29002500002310B5934206D113F040
:1016F000030018BF012000EB930010BDC45CCC5464
:101700000133F2E738B50D461446012801D02046D2
:1017100038BD21462846FFF79FFD0028F9D0F6E79F
:101720005AB10A44431E10B411F8014B914203F818
:10173000014FF9D15DF8044B7047704713B504466B
:10174000019201AAFEF7DAFC636813F0100F18BFCC
:101750004FF0FF3002B010BD38B51020FEF752FE3A
:101760000446FFF741FCA5682046FFF773F82846BA
:1017700038BDFEE7037833B1034613F8012F002A82
:10178000FBD1181A70471846704700BF0068002840
:1017900008B501DA002008BDFFF7ECFE431CFAD1C2
:1017A000F8E7FEE7F317000CE716000C5F18000CD3
:1017B0005F18000C5F18000C08B500F041F8024BF0
:1017C0001860586008BD00BF7802002032B1C9B26D
:1017D0000244034603F8011B9342FBD1704700BF4C
:1017E00010B50C46FFF79AFB2046FFF7FDFB0120E2
:1017F00010BD0A440023914201D10020704701F836
:10180000013BF8E7024B04221A725A72704700BF7C
:101810000060004408B5FFF7CFFF00F02AF800F0A1
:1018200028F808BDA0F14103192B98BF40F0200013
:101830007047A0F16103192B98BF00F05F0070475B
:10184000004870479402002008B5FFF7FDFD08BD71
:07185000286E756C6C290085
:101858000068FFF753BF0020704700207047002042
:0C1868007047FEE77047FEE770477047CE
:020000040C0FDF
:10F000007FE97FE900F7FCBF7FE97FE901F72CB8D2
:020000040C10DE
:10000000F0FF0720D902100C2B05100C2D05100C49
:1000100000000000000000000000000000000000E0
:100020000000000000000000000000002905100C86
:1000300000000000000000002905100C2905100C2C
:1000400000000000000000000000000000000000B0
:1000500000000000000000000000000000000000A0
:100060000000000000000000000000000000000090
:100070000000000000000000000000000000000080
:1002B0000000000000000000F8B500BFF8BC08BC5A
:1002C0009E4670474904100CF8B500BFF8BC08BC46
:1002D0009E4670472504100C08B51F4B98471F4BCE
:1002E0009847EFF3108172B61D4BD3F8882042F483
:1002F0007002C3F88820D3F88C2042F44062C3F81F
:100300008C20184A536843F07C435360BFF34F8FEF
:10031000BFF36F8F01B962B6134A936823F00103EC
:1003200093601346DA6812F0010FFBD10E4B2422C2
:100330005A6001229A6000F04FF80C4B23F07F03C3
:10034000074A93600A4B98470A4B98470A4B9847CD
:1003500000F0A0F8FEE700BF2F05100C2F05100CD1
:1003600000ED00E030EF00E0008080440000100C61
:100370007D03100C2F05100C2F05100C38B50E4AFC
:1003800000230E4C13600E4A0E4D13600E4A13608C
:100390000E4A13600E4A13600E4A53621361012322
:1003A000936000F0C5F800F0C3F8AC4200D338BD4C
:1003B00054F8043B9847F8E770000420C402100C7E
:1003C0000C000420C802100C0800042000000420C7
:1003D00004000420100004200E4B00210E4A70B5CA
:1003E000934208D30D484FF6FF760D4D016829B9A9
:1003F00043681BB970BD03F8011BF1E7836800F186
:100400000C0442683340204655F82330984704EBEB
:100410008000EBE700000420000004206404100CBE
:10042000F004100C10B5054C227832B9044B13B10E
:10043000044800E000BF0123237010BD50000420D9
:10044000000000000000000008B5034B1BB1034989
:10045000034800E000BF08BD000000005400042075
:1004600000000000500004202000000000000000F8
:100470000000042050000000000000007000042074
:100480000400000000000000000000000000000068
:100490006666666608B5002000F03DF8FEF7B4FD1C
:1004A0004FF089414FF4801201E0C1F89C21024BCA
:1004B000013BFDD1F9E700BF81969800002310B5FC
:1004C000934206D113F0030018BF012000EB930004
:1004D00010BDC45CCC540133F2E74FF089434FF0B8
:1004E0000072C3F898204FF48012C3F89821704727
:1004F0000505100CBD04100C2305100C2305100C71
:100500002305100C0A440023914201D100207047BA
:1005100001F8013BF8E708B5FFF7DFFF00F003F84B
:1005200008BD002070477047FEE7FEE7FEE7704712
:02053000704712
:00000001FF
