:020000040000FA
:10000000F87F00207102000051040000530400003A
:1000100000000000000000000000000000000000E0
:100020000000000000000000000000004F0400007D
:1000300000000000000000004F0400004F0400001A
:100040004F0400004F0400004F0400004F04000064
:100050004F0400004F0400004F0400004F04000054
:100060004F0400004F0400004F0400004F04000044
:100070004F0400004F0400004F0400004F04000034
:100080004F0400004F0400004F0400004F04000024
:100090004F0400004F0400004F0400004F04000014
:1000A0004F0400004F0400004F0400004F04000004
:1000B0004F0400004F0400004F0400004F040000F4
:1000C0004F0400004F0400004F0400004F040000E4
:1000D0004F0400004F0400004F0400004F040000D4
:1000E0004F0400004F0400004F0400004F040000C4
:1000F0004F0400004F0400004F0400004F040000B4
:100100004F0400004F0400004F0400004F040000A3
:100110004F0400004F0400004F0400004F04000093
:100120004F0400004F0400004F0400004F04000083
:100130004F0400004F0400004F0400004F04000073
:100140004F0400004F0400004F0400004F04000063
:100150004F0400004F0400004F040000F8B5C046F3
:10016000F8BC08BC9E467047F1020000F8B5C046D6
:10017000F8BC08BC9E467047C502000040F2000073
:1001800040F20002F0B5C646C2F20000C2F2000220
:1001900000B503000021904203D21970013393424D
:1001A000FBD140F2F432C0F2000213685468190027
:1001B000214340F20B0C40F20308002681B11700E6
:1001C00091680C3779B91A191CB11E70013393422A
:1001D000FBD13A0013685468190021430029EED17D
:1001E00004BC9046F0BD6146C91A1D1951182CB1C6
:1001F0005A1C505C187013009542F9D143462340B5
:100200005A1E9341A4081C19A4003F193A00E1E7C3
:1002100030B583B045F20043C0F205031C684AF6CE
:100220000023C0F202031D68002000F0D1F86B1C0F
:100230000AD085F308884AF60423C0F202031B683B
:100240000093009B9847FEE7631CFCD084F38888EA
:1002500045F20443C0F205031B680193019C640846
:100260006400200021002200230000F098F8EAE753
:1002700010B540F25543C0F20003984740F2554391
:10028000C0F200039847FFF779FF40F20003C0F285
:1002900000037F2293434EF60052CEF20002936099
:1002A00040F21533C0F20003984740F25543C0F2C4
:1002B0000003984740F25543C0F200039847FFF708
:1002C000A7FFFEE710B540F20004C2F20004237855
:1002D00063B940F20003C0F200032BB140F200000A
:1002E000C0F2000000E000BF0123237010BDC04633
:1002F00040F20003C0F2000310B54BB140F204011C
:1003000040F20000C2F20001C0F2000000E000BFB5
:1003100010BDC04670B500250E4C0F4BE41AA4105A
:10032000A54209D10025FFF719FF0C4C0C4BE41A2C
:10033000A410A54207D170BD074AAB009B181B68EB
:1003400098470135ECE7064AAB009B181B689847B5
:100350000135EEE768010000680100006C01000053
:100360006801000040F20043C4F2000300221A8139
:100370009A7901210A439A719B7803221340022B38
:100380000CD040F20043C4F20003013A9A705202CA
:10039000C4F20002012193790B42FCD07047E0B512
:1003A00045464E465746E0B45D4620B425462646AF
:1003B0002746A046A146A246A346A44684F3008849
:1003C000A44720BCAB46E0BCBA46B146A846E0BD57
:1003D00010B5FFF7C7FF45F20003C4F20013042273
:1003E0005A6000F017F800F024F800F02FF800F041
:1003F00029F810BD000000201C00000000000000D3
:100400001C000020040000000000000000000000AC
:100410000000000043F20023C4F200030022DA6669
:10042000EC215A5014318020000358506C315A503E
:10043000704745F20003C4F2001304225A60033AE5
:100440001A727047BFF35F8F62B670477047FEE75E
:06045000FEE7FEE7704725
:020000040002F8
:10A9C000279A75183688FC60F848E8FD6BF1FAFAAA
:10A9D000F2206F442E6A78EC95496CB315856C09AA
:10A9E00014B3EA999F0ECEE5575898BB116928F128
:10A9F000ECF7BB52C9608DE8E872FB2DBC2BC88711
:10AA0000F07F002005AC0200BDAD0200BFAD02002A
:10AA10000000000000000000000000000000000036
:10AA20000000000000000000000000003FAD020038
:10AA300000000000000000003FAD02003FAD02003A
:10AA40003FAD02003FAD02003FAD02003FAD02004E
:10AA50003FAD02003FAD02003FAD02003FAD02003E
:10AA60003FAD02003FAD02003FAD02003FAD02002E
:10AA70003FAD02003FAD02003FAD02003FAD02001E
:10AA80003FAD02003FAD02003FAD02003FAD02000E
:10AA90003FAD02003FAD02003FAD02003FAD0200FE
:10AAA0003FAD02003FAD02003FAD02003FAD0200EE
:10AAB0003FAD02003FAD02003FAD02003FAD0200DE
:10AAC0003FAD02003FAD02003FAD02003FAD0200CE
:10AAD0003FAD02003FAD02003FAD02003FAD0200BE
:10AAE0003FAD02003FAD02003FAD02003FAD0200AE
:10AAF0003FAD02003FAD02003FAD02003FAD02009E
:10AB00003FAD02003FAD02003FAD02003FAD02008D
:10AB10003FAD02003FAD02003FAD02003FAD02007D
:10AB20003FAD02003FAD02003FAD02003FAD02006D
:10AB30003FAD02003FAD02003FAD02003FAD02005D
:10AB40003FAD02003FAD02003FAD02003FAD02004D
:10AB50003FAD02003FAD02003FAD0200F8B5C04678
:10AB6000F8BC08BC9E467047B9AC0200F8B5C046B8
:10AB7000F8BC08BC9E46704795AC02001E4A1F4BAD
:10AB800070B50021934203D2197001339342FBD177
:10AB9000002503261A4803684168B3B959B383688E
:10ABA0000C30BBB100230022845C9C5401328A42E9
:10ABB000FAD333000B405A1E934189085918890073
:10ABC000401803684168002BE8D082680C303AB91D
:10ABD0000029E0D059181D7001338B42FBD1DAE710
:10ABE0000029E0D133000B405A1E934189085918BF
:10ABF00089004018E5E770BD00000020000000203B
:10AC000068AD020010B50A4B98470A4B9847FFF70A
:10AC1000B5FF094A7F21094B8B439360084B984746
:10AC2000084B9847084B984700F054F8FEE7C04699
:10AC3000C1AD0200C1AD020000ED00E000AA0200BB
:10AC40004DAC0200C1AD0200C1AD020070B50026DE
:10AC50000C4D0D4C641BA410A64209D10026FFF731
:10AC60007DFF0A4D0A4C641BA410A64205D170BD9D
:10AC7000B300EB5898470136EEE7B300EB5898471E
:10AC80000136F2E768AB020068AB020068AB020075
:10AC90006CAB020010B5054C237833B9044B13B1EB
:10ACA000044800E000BF0123237010BD0000002015
:10ACB0000000000000000000034B10B51BB1034969
:10ACC000034800E000BF10BD0000000004000020A9
:10ACD0000000000010B582B00A4B1C68002000F094
:10ACE00063F8631C0DD084F38888074B1B680193BD
:10ACF000019C64086400200021002200230000F071
:10AD000005F8FEE70054050004540500E0B545468B
:10AD10004E465746E0B45D4620B4254626462746B3
:10AD2000A046A146A246A346A44684F30088A447B1
:10AD300020BCAB46E0BCBA46B146A846E0BDFEE743
:10AD400010B5084B0022DA66EC215A5040F2001090
:10AD50001C58802109052143195040F26C115A50AA
:10AD600010BDC04600320040000000201C00000062
:10AD7000000000000000000000000000222222224B
:10AD80002222222222222222401801000200030055
:10AD900084468EF3008874474018010002000300C7
:10ADA00084468EF30088744710B5FFF7C9FF00F0A2
:10ADB00001F810BDBFF35F8F62B67047FEE7FEE794
:02ADC0007047DA
:020000040005F5
:104C00007FE97FE9D6F7C8B87FE97FE9D6F7BCB876
:10540000F8FF0020115605004B5705004D570500C9
:10541000000000000000000000000000000000008C
:1054200000000000000000000000000049570500D7
:105430000000000000000000495705004957050022
:10544000000000000000000000000000000000005C
:10545000000000000000000000000000000000004C
:10546000000000000000000000000000000000003C
:10547000000000000000000000000000000000002C
:10548000000000000000000000000000000000001C
:10549000000000000000000000000000000000000C
:1054A00000000000000000000000000000000000FC
:1054B00000000000000000000000000000000000EC
:1054C00000000000000000000000000000000000DC
:1054D00000000000000000000000000000000000CC
:1054E00000000000000000000000000000000000BC
:1054F00000000000000000000000000000000000AC
:10550000000000000000000000000000000000009B
:10551000000000000000000000000000000000008B
:10552000000000000000000000000000000000007B
:10553000000000000000000000000000000000006B
:10554000000000000000000000000000000000005B
:10555000000000000000000000000000F8B5C04698
:10556000F8BC08BC9E46704791560500F8B5C04689
:10557000F8BC08BC9E4670476556050048F200001E
:1055800048F20002F0B5C646C2F20000C2F20002C4
:1055900000B503000021904203D2197001339342F9
:1055A000FBD145F20472C0F2050213685468190079
:1055B000214340F20B0C40F20308002681B1170092
:1055C00091680C3779B91A191CB11E7001339342D6
:1055D000FBD13A0013685468190021430029EED129
:1055E00004BC9046F0BD6146C91A1D1951182CB172
:1055F0005A1C505C187013009542F9D14346234061
:105600005A1E9341A4081C19A4003F193A00E1E76F
:1056100010B545F24F73C0F20503984745F24F733A
:10562000C0F205039847FFF7A9FF45F20043C0F217
:1056300005037F2293434EF60052CEF200029360A0
:1056400045F2B563C0F20503984745F24F73C0F2C7
:105650000503984745F24F73C0F20503984700F0E1
:1056600061F8FEE710B548F20004C2F200042378A6
:1056700063B940F20003C0F200032BB140F2000016
:10568000C0F2000000E000BF0123237010BDC0463F
:1056900040F20003C0F2000310B54BB148F2040120
:1056A00040F20000C2F20001C0F2000000E000BFC2
:1056B00010BDC04670B500250E4C0F4BE41AA41067
:1056C000A54209D10025FFF749FF0C4C0C4BE41A09
:1056D000A410A54207D170BD074AAB009B181B68F8
:1056E00098470135ECE7064AAB009B181B689847C2
:1056F0000135EEE768550500685505006C55050055
:1057000068550500008000201C000000000000001B
:105710001C800020040000000000000000000000C9
:105720000000000010B5002000F009F814210A2044
:10573000FFF76AFA14210A20FFF766FAFEE710B5B0
:1057400000F001F810BD7047FEE7FEE7FEE7704786
:0200000400807A
:1040000077438FB0BBF0FFFFAA0232F000FFFFFF43
:10401000000000000200000000000000000000009E
:04402000B67376E815
:0CC00000FFFF07F004AAEAFFCC9A34C04E
:10C01000FFFFFFFFFFFFFFFFFFFFFFFFFFFFFFFF30
:10C02000FFFFFFFFFFFFFFFFFFFFFFFFFFFFFFFF20
:10C03000FFFFFFFFFFFFFFFFFFFFFFFFFFFFFFFF10
:10C04000FFFFFFFFFFFFFFFFFFFFFFFFFFFFFFFF00
:10C05000FFFFFFFFFFFFFFFFFFFFFFFFFFFFFFFFF0
:10C06000FFFFFFFFFFFFFFFFFFFFFFFFFFFFFFFFE0
:10C07000FFFFFFFFFFFFFFFFFFFFFFFFFFFFFFFFD0
:10C08000FFFFFFFFFFFFFFFFFFFFFFFFFFFFFFFFC0
:10C0900056E858495F76E6634C1158099A2FC872E2
:10C0A000C9BCA91F1C02C41178F1BFBD9D102BF49F
:10C0E000FFFFFFFFFFFFFFFFFFFFFFFFFFFFFFFF60
:10C0F000FFFFFFFFFFFFFFFFFFFFFFFFFFFFFFFF50
:00000001FF
