:020000040000fa
:020000040800f2
:10000000f8ff11202117000c5922000c5f22000c70
:100010006b22000c7122000c7722000c0000000003
:10002000000000000000000000000000cb11000ce8
:100030006522000c00000000cb11000ccb11000c5d
:10004000cb11000ccb11000ccb11000ccb11000c10
:10005000cb11000ccb11000ccb11000ccb11000c00
:10006000cb11000ccb11000ccb11000ccb11000cf0
:10007000cb11000ccb11000ccb11000ccb11000ce0
:100360000000000000000000cb11000ccb11000cbd
:10037000cb11000ccb11000ccb11000ccb11000cdd
:10038000cb11000ccb11000ccb11000ccb11000ccd
:10039000cb11000ccb11000ccb11000ccb11000cbd
:1003a000cb11000ccb11000ccb11000ccb11000cad
:0803b000cb11000ccb11000c75
:020000040000fa
:020000040a00f0
:040000000100fefffe
:020000040000fa
:020000040a00f0
:04002000ffffffffe0
:020000040000fa
:020000040a00f0
:0400400000000000bc
:020000040000fa
:020000040a00f0
:04004400ffffffffbc
:020000040000fa
:020000040a00f0
:0400480007000000ad
:020000040000fa
:020000040a00f0
:04004c00c7050000e4
:020000040000fa
:020000040a00f0
:04005400ffff0000aa
:020000040000fa
:020000040a00f0
:040058007000000034
:020000040000fa
:020000040a00f0
:04005c00020000009e
:020000040000fa
:020000040a00f0
:04006000000000009c
:020000040000fa
:020000040a00f0
:040064000202000094
:020000040000fa
:020000040a00f0
:04008000ffffffff80
:020000040000fa
:020000040a00f0
:0400a000ffffffff60
:020000040000fa
:020000040a00f0
:04200000000000c01c
:020000040000fa
:020000040a00f0
:042004000100feffda
:020000040000fa
:020000040a00f0
:04200800ffffffffd8
:020000040000fa
:020000040a00f0
:04208000ffffffff60
:020000040000fa
:020000040a00f0
:04208400ffffffff5c
:020000040000fa
:020000040a00f0
:04208800ffffffff58
:020000040000fa
:020000040a00f0
:04208c00ffffffff54
:020000040000fa
:020000040a00f0
:04209000ffffffff50
:020000040000fa
:020000040a00f0
:04209400ffffffff4c
:020000040000fa
:020000040a00f0
:04209800ffffffff48
:020000040000fa
:020000040a00f0
:04209c00ffffffff44
:020000040000fa
:020000040a00f0
:0420a000ffffffff40
:020000040000fa
:020000040a00f0
:0420a400ffffffff3c
:020000040000fa
:020000040a00f0
:0420a800ffffffff38
:020000040000fa
:020000040a00f0
:0420ac00ffffffff34
:020000040000fa
:020000040a00f0
:0420b000ffffffff30
:020000040000fa
:020000040a00f0
:0420b400ffffffff2c
:020000040000fa
:020000040a00f0
:0420b800ffffffff28
:020000040000fa
:020000040a00f0
:0420bc00ffffffff24
:020000040000fa
:020000040a00f0
:0420c000ffffffff20
:020000040000fa
:020000040a00f0
:0420c400ffffffff1c
:020000040000fa
:020000040a00f0
:0420c800ffffffff18
:020000040000fa
:020000040a00f0
:0420cc00ffffffff14
:020000040000fa
:020000040a00f0
:0420d000ffffffff10
:020000040000fa
:020000040a00f0
:0420d400ffffffff0c
:020000040000fa
:020000040a00f0
:0420d800ffffffff08
:020000040000fa
:020000040a00f0
:0420dc00ffffffff04
:020000040000fa
:020000040a00f0
:0420e00006070000ef
:020000040000fa
:020000040a00f0
:0420e40004cf0f0016
:020000040000fa
:020000040a00f0
:0420e80006f70401f2
:020000040000fa
:020000040a00f0
:0420ec00863a000030
:020000040000fa
:020000040a00f0
:0420f000ff030000ea
:020000040000fa
:020000040a00f0
:0420f4003f000000a9
:020000040000fa
:020000040a00f0
:0420f800bf00000025
:020000040000fa
:020000040a00f0
:0420fc00ffffffffe4
:020000040000fa
:020000040a00f0
:04210000ffffffffdf
:020000040000fa
:020000040a00f0
:04211000ffffffffcf
:020000040000fa
:020000040a00f0
:04211400ffffffffcb
:020000040000fa
:020000040a00f0
:04211800ffffffffc7
:020000040000fa
:020000040a00f0
:04211c00ffffffffc3
:020000040000fa
:020000040a00f0
:04212000ffffffffbf
:020000040000fa
:020000040a00f0
:048000000000ffff7e
:020000040000fa
:020000040a00f0
:04802000ffffffff60
:020000040000fa
:020000040a00f0
:0480400044000000f8
:020000040000fa
:020000040a00f0
:04804400ffffffff3c
:020000040000fa
:020000040a00f0
:04804800070000002d
:020000040000fa
:020000040a00f0
:04804c00c705000064
:020000040000fa
:020000040a00f0
:04805400ffff00002a
:020000040000fa
:020000040a00f0
:0480580070000000b4
:020000040000fa
:020000040a00f0
:04805c00020000001e
:020000040000fa
:020000040a00f0
:04806000000000001c
:020000040000fa
:020000040a00f0
:048064000202000014
:020000040000fa
:020000040a00f0
:04808000ffffffff00
:020000040000fa
:020000040a00f0
:0480a000ffffffffe0
:020000040000fa
:020000040a00f0
:04a00000000000c09c
:020000040000fa
:020000040a00f0
:04a004000000ffff5a
:020000040000fa
:020000040a00f0
:04a00800ffffffff58
:020000040000fa
:020000040a00f0
:04a08000ffffffffe0
:020000040000fa
:020000040a00f0
:04a08400ffffffffdc
:020000040000fa
:020000040a00f0
:04a08800ffffffffd8
:020000040000fa
:020000040a00f0
:04a08c00ffffffffd4
:020000040000fa
:020000040a00f0
:04a09000ffffffffd0
:020000040000fa
:020000040a00f0
:04a09400ffffffffcc
:020000040000fa
:020000040a00f0
:04a09800ffffffffc8
:020000040000fa
:020000040a00f0
:04a09c00ffffffffc4
:020000040000fa
:020000040a00f0
:04a0a000ffffffffc0
:020000040000fa
:020000040a00f0
:04a0a400ffffffffbc
:020000040000fa
:020000040a00f0
:04a0a800ffffffffb8
:020000040000fa
:020000040a00f0
:04a0ac00ffffffffb4
:020000040000fa
:020000040a00f0
:04a0b000ffffffffb0
:020000040000fa
:020000040a00f0
:04a0b400ffffffffac
:020000040000fa
:020000040a00f0
:04a0b800ffffffffa8
:020000040000fa
:020000040a00f0
:04a0bc00ffffffffa4
:020000040000fa
:020000040a00f0
:04a0c000ffffffffa0
:020000040000fa
:020000040a00f0
:04a0c400ffffffff9c
:020000040000fa
:020000040a00f0
:04a0c800ffffffff98
:020000040000fa
:020000040a00f0
:04a0cc00ffffffff94
:020000040000fa
:020000040a00f0
:04a0d000ffffffff90
:020000040000fa
:020000040a00f0
:04a0d400ffffffff8c
:020000040000fa
:020000040a00f0
:04a0d800ffffffff88
:020000040000fa
:020000040a00f0
:04a0dc00ffffffff84
:020000040000fa
:020000040a00f0
:04a0e000060700006f
:020000040000fa
:020000040a00f0
:04a0e40004cf0f0096
:020000040000fa
:020000040a00f0
:04a0e80006f7040172
:020000040000fa
:020000040a00f0
:04a0ec00863a0000b0
:020000040000fa
:020000040a00f0
:04a0f000ff0300006a
:020000040000fa
:020000040a00f0
:04a0f4003f00000029
:020000040000fa
:020000040a00f0
:04a0f800bf000000a5
:020000040000fa
:020000040a00f0
:04a0fc00ffffffff64
:020000040000fa
:020000040a00f0
:04a10000ffffffff5f
:020000040000fa
:020000040a00f0
:04a11000ffffffff4f
:020000040000fa
:020000040a00f0
:04a11400ffffffff4b
:020000040000fa
:020000040a00f0
:04a11800ffffffff47
:020000040000fa
:020000040a00f0
:04a11c00ffffffff43
:020000040000fa
:020000040a00f0
:04a12000ffffffff3f
:020000040000fa
:020000040c00ee
:10000000f8b500bff8bc08bc9e467047611b000ce9
:10001000f8b500bff8bc08bc9e4670473d1b000cfd
:020000040000fa
:020000040c00ee
:10002000640602201c000000000000008806022078
:10003000080000000000000014060220500000002c
:1000400000000000080402200c0200000000000074
:100050009c0602206c00000001000000a80602209f
:10006000a4060220a80602200000000025000000cf
:100070000800022000040000000000000000000052
:100080000000000000000000000000000000000070
:1000900000000000000000009522000c000000009d
:1000a0000000000000000000000000009b14000c95
:1000b0000000000000000000000000000000000040
:1000c0000000000000000000000002200804000002
:1000d000000000006807022020000000010000006e
:1000e000010000000300000000000000000000000c
:1000f0000000000000000000000000008006022058
:100100008006022008000000000000009006022087
:100110000800000000000000080702206000000046
:1001200001000000010000000300000000000000ca
:1001300000000000000000000000000000000000bf
:100140001116000c0000000000000000000000007c
:100150007d22000cab1d000c000000000000000020
:10016000000000000000000000000000000000008f
:10017000000000000000000000000000000000007f
:1001800000000000980602200400000000000000ab
:1001900000000000b803000001000000f8ff11207b
:1001a0002117000c5922000c5f22000c6b22000c5e
:1001b0007122000c7722000c0000000000000000fb
:1001c0000000000000000000cb11000c6522000cb4
:1001d00000000000cb11000ccb11000ccb11000c67
:1001e000cb11000ccb11000ccb11000ccb11000c6f
:1001f000cb11000ccb11000ccb11000ccb11000c5f
:10020000cb11000ccb11000ccb11000ccb11000c4e
:10021000cb11000ccb11000ccb11000ccb11000c3e
:1004f000cb11000ccb11000ccb11000c0000000044
:1005000000000000cb11000ccb11000ccb11000c33
:10051000cb11000ccb11000ccb11000ccb11000c3b
:10052000cb11000ccb11000ccb11000ccb11000c2b
:10053000cb11000ccb11000ccb11000ccb11000c1b
:10054000cb11000ccb11000ccb11000ccb11000c0b
:10055000cb11000c0000000000000000666666661b
:020000040000fa
:020000040c00ee
:100560002de9f041aeb006461546059100270599e4
:100570000b78002b00f0fa8000244ff0ff33cde918
:1005800009430eab0c9380230b940d930b5d0bb1c1
:10059000252b26d134b12246304601f02efb059b97
:1005a00023440593059b1a78252a40f0d78003f150
:1005b0000108cdf81480059803782b2b1ad025d884
:1005c000202b1bd0232b1dd02a2b27d001f04ffa34
:1005d0000b90059b1a78303a092a2ed801330593df
:1005e000f7e70134d2e7099b43f001030130099397
:1005f0000590e0e7099b43f00403f7e7099b43f00c
:100600000803f3e7099b43f01003efe72d2bead033
:10061000302bd9d1099b43f00203e7e72b681a1d61
:100620001b682a600130002b05900b9305da099aac
:100630005b4282f0010209920b93099bda0744bfe7
:1006400023f002030993059b1a782e2a0dd100226c
:10065000581c0a9205905a782a2a25d1023305930c
:100660002b681a1d1b682a600a9305a801f01afb63
:10067000059b0390187801f0dbfd6928039979d078
:1006800032dc632800f0cb8019dc252800f0d9800b
:10069000612853d000234ff0ff32cdf81480099326
:1006a0000b930a920093d4e001f0e1f90a90059bc4
:1006b0001a78303a092ad8d801330593f7e7642825
:1006c00058d06728e6dc2a4606a801f0f3fb00288c
:1006d00000f0a180059b5a1c05921b7806aa09a967
:1006e000304601f0d5fd38e0702873d015dc6e2857
:1006f00000f08c806f28cdd12b46002206a800f098
:1007000095fb002800f08780059b06aa013309a904
:100710003046059301f0bafd1fe075283ad07828dd
:1007200048d07328b6d1802975d1059b2a6801333a
:100730000593131d2b60126800237de02a4606a84e
:1007400001f0b8fb002866d0059b5a1c05921b7867
:1007500006aa09a9304601f09bfd04443c44a74287
:100760007add3e4b4f221a604ff0ff3738462eb0ed
:10077000bde8f0812b46012206a800f057fb0028b7
:1007800049d0059b06aa013309a93046059301f01b
:100790007dfde2e72b46002206a800f047fb00287b
:1007a00039d0059b06aa013309a93046059301f00b
:1007b0006dfdd2e72b46002206a800f037fb50b3b0
:1007c000059b5a1c05921b7806aa09a9304601f020
:1007d0005ffdc2e72b460022f02106a800f026fbb1
:1007e000c8b1059b01330593dde9062313430bd103
:1007f0001b4801f0affc099b009319490b9b024673
:10080000304600f023fda8e77823dde72b463a19b0
:1008100006a800f05bfd059b013305939ee7802948
:10082000f9d1059b013305932b681a1d1b682a60bb
:100830008df8183006aa012309a9304600f044ffbc
:100840008be78029e7d1059b01330593099b009332
:100850000b9b04490122d3e7274688e69406022031
:08086000de20000ce420000c76
:020000040000fa
:020000040c00ee
:100868002de9f04f85b0019001a801f083f9002827
:1008780003da002005b0bde8f08f019b1b095d1e5f
:10088800202d0fd9023b5b4ab3f5007f35bf02eb41
:10089800d30302ebd31313f8045c13f8045c34bfde
:1008a800013511350123a5f12001c5f1200203fa14
:1008b80001f923fa02f203fa05f849ea0209d8f124
:1008c80000084d4f69eb4909d7e9002302ea080af5
:1008d80003ea090b5aea0b0342d1019b03a8103320
:1008e800039301f057fc18b9444b0c221a60c1e776
:1008f800d7f80852a84206d0039b103b0393012364
:1009080000f110058360039bea18012143f00103fd
:10091800b5f1080442f8083c42f8041cc7f808225c
:1009280045f8043ca5d0204601f023fa88b155f8d3
:10093800083c55f8041c23f00103e31a5a6822f016
:1009480001020a445a6055f8041c21f00101625062
:100958001c462046019901f0f3f904f1080089e7e3
:100968005046244a264bbaf1000f34d1cbf100018e
:1009780001ea0b014b4302ebd36393f83c6020364a
:10098800304601f08dfb731c57f8334007ebc30367
:10099800083b9c4298d0272e26dd0235ae4201dc6a
:1009a8003f2e21d16168019a21f001018d1a284654
:1009b80001f058f9864217d1a318e068a668d860f4
:1009c8009e608360986842f00102c360c3e9002515
:1009d80065506260bde7caf1000101404b4302eb7c
:1009e800d36393f83c60cbe73146204600f0b0fd76
:1009f800afe700bfb415000c0804022094060220db
:040a080029e66b0769
:020000040000fa
:020000040c00ee
:100a0c0080b586b000af454b1b68fb6000237b6153
:100a1c00fb6803f00203002b06d1fb6843f00203d2
:100a2c00fb603e4afb6813603c4b5b69bb603c4b14
:100a3c00184600f099fe01f0f5f9384b5b69bb6084
:100a4c00bb681b0903f00703012b44d1bb6803f4fb
:100a5c00e0437b607b681b0b7b60bb681b0b03f06c
:100a6c000703012b09d12f4801f09afa2c4b184699
:100a7c0000f0f6fd00237b6121e0284b5b693b61b4
:100a8c0002e0264b5b693b613b6903f00103002be1
:100a9c00f7d1224bd3f844313b603b6803f480130d
:100aac00002b07d0204801f07bfa01f0bbf90123a1
:100abc007b6104e01d4801f073fa02237b617b69c2
:100acc00002b05d01a4801f06bfa012000f0adfca8
:100adc0000f0fcf90ee0bb681b0903f00703022bc6
:100aec0005d1144801f05cfa00f0f0f902e012486c
:100afc0001f056fa094b5b69bb60bb681b0b03f03a
:100b0c000703052b05d10d4801f04afa0c4b0122c5
:100b1c001a6000bf1837bd4680bd00bf0080014f72
:100b2c0000f87d0c500b000c840b000cac0b000c73
:100b3c00d00b000ce80b000c140c000c280c000c57
:040b4c0088060220f5
:020000040000fa
:020000040c00ee
:100b500053454355524520424f4f5420495320445a
:100b6000495341424c45442c204e45454420544f66
:100b7000204c4f4144204649524d57415245200d8b
:100b8000000000bf53494d554c54414e454f5553fd
:100b90002053454355524520424f4f5420697320fe
:100ba000454e41424c45440d000000bf5345515550
:100bb000454e5449414c2053454355524520424fe0
:100bc0004f5420697320454e41424c45440d00006e
:100bd0004649414e4c495a452053454355524520bc
:100be000424f4f54200d000053454355524520427b
:100bf0004f4f5420495320444f4e452045495448b7
:100c0000455220574159202c2047455453424320f8
:100c10000d0000bf454e54455245442053414645c2
:100c2000204d4f4445200d00534543555245204229
:100c30004f4f5420495320504153534544200d00f9
:100c400047455420534243203a0000bf20444953b3
:100c500041424c4544200d002053494d554c5441d0
:100c60004e454f5553200d002053455155454e5488
:080c700049414c200d0000bfba
:020000040000fa
:020000040c00ee
:100c78002de9f84300286ad050f8043ca0f1080494
:100c880023f00107e6193268934200d0ffde72684c
:100c980023681340da070fd4204601f06af80028c9
:100ca80057d1304601f0d6f80028f0d0736823f009
:100cb80001031f441e44eae747f001036360384616
:100cc800336000f0cfff054601f0eaf92368726847
:100cd8001340db07e0d5dff88ce0dee90089c5f1d9
:100ce800200ca5f1200228fa05f009fa0cfc29fad3
:100cf80002f240ea0c001043012100ea010200233d
:100d08001343c5f120007346a5f1200212d121fa40
:100d180000f001fa02f2a94042ea00021ebfdef822
:100d280000000143cef8001022b1def804100a4397
:100d3800cef80420681c03ebc003a3f10802676027
:100d48003760a2605a68e2605c60e3689c60bde856
:100d5800f883236823f00103e41a636823f001038e
:080d68001f449ee7080402206d
:020000040000fa
:020000040c00ee
:100d700080b48bb000af78602a4bd3f84431fb606d
:100d8000294bfb61274b5b69bb61bb691b0cdbb269
:100d900003f00f0387f827300de0224bd3f84431de
:100da000fb60204b5b69bb61bb691b0cdbb203f0d2
:100db0000f0387f82730bb7b03f01003dbb2002b57
:100dc000ebd07b687b61fb691b68bb60ba687b69a1
:100dd0001a603b89bb84bb8c043bbb84012387f82e
:100de000233014e00f4a97f82330403352f8233071
:100df0003b6197f823207b69396943f8221097f803
:100e00002330013387f82330bb8c043bbb84bb8c7d
:100e1000002be7d197f8273018462c37bd465df8f0
:0c0e2000047b70470080014f5481014f9b
:020000040000fa
:020000040c00ee
:100e2c00882910b536d012dc812943d003dc802907
:100e3c0040d0002010bd82290ed08429f9d1196828
:100e4c0002b30a1d1a60b1f90020d3171ee0a029c5
:100e5c002bd00bdc9029ecd11968073121f007015c
:100e6c0001f108021a60d1e900230fe0c02901d07a
:100e7c00f029ded11a68111d196013680360002374
:100e8c00436005e00a1d1a600a880023c0e90023ac
:100e9c000120cfe7196822b10a1d1a6091f90020d0
:100eac00d3e70a1d1a600a78efe71a68111d19605a
:100ebc001268cae719681ab10a1d1a600a68c4e7f1
:0c0ecc000c1d1c600b68c0e90032e1e75f
:020000040000fa
:020000040c00ee
:100ed80080b584b000af2020fff7c2fc0346fb605a
:100ee80020220021f86801f075f9fb6810221a80a9
:100ef800fa68937843f020039370fb6800221a7114
:100f0800fb6800225a711020fff7aafc0346bb6059
:100f1800b968f86801f0b4f8bb68db687b60124810
:100f280001f07af87b68012b0ad07b68002b03d08c
:100f38007b68022b08d00be00c4801f033f807e07f
:100f48000b4801f02ff803e00a4801f02bf800bf26
:100f5800f868fff78dfeb868fff78afe7b681846c9
:100f68001037bd4680bd00bf400c000c4c0c000c77
:080f7800580c000c680c000c81
:020000040000fa
:020000040c00ee
:100f800080b588b000af786039600023fb777b685c
:100f90007b617b683b610023bb610023fb817b6835
:100fa000002b38d000f010fc29e000bf1c4b1b7e4a
:100fb000dbb203f00403002bf8d0194b5b8b9bb220
:100fc00003f00703fb81fb89002b1dd1144b5b68e9
:100fd00003f00703012b07d0114b996a7a69bb69ab
:100fe0001344cab21a7007e00d4b996abb695b00e3
:100ff0003a6913448ab21a80bb690133bb61ba698a
:101000003b689a42d1d300e000bf3a68bb699a427c
:1010100001d10123fb77fb7f18462037bd4680bdf9
:041020000020004666
:020000040000fa
:020000040c00ee
:1010240080b400af214b4ff4c002c3f880201f4ba3
:101034004ff0b072c3f890201c4b002283f8d520e7
:101044001a4b002283f8d620184b062283f8d820a6
:10105400164b002283f8ba20144b002283f8bb20dd
:10106400124b002283f8bc20104b4ff40002c3f84b
:1010740010210e4b012283f844210c4b012283f8ea
:1010840047210a4b062283f85721084b032283f891
:101094003221064b302283f83321044b002283f89b
:1010a4003b2100bfbd465df8047b704700008444cb
:020000040000fa
:020000040c00ee
:1010b40080b487b000af78601f4bd3f840317b61b8
:1010c4001d4b5b693b6106e01b4bd3f840317b61f0
:1010d400194b5b693b613b6903f00103002b04d0ae
:1010e4007b6903f48013002beed07b68bb60bb6884
:1010f4001b88fb81104abb681b68c2f85031fb890e
:10110400043bfb8101237b730ce07a7b0a49bb68b7
:1011140053f82230c1f800317b7b01337b73fb89a8
:10112400043bfb81fb89002befd1012318461c37bc
:0c113400bd465df8047b70470080014f51
:020000040000fa
:020000040c00ee
:101140002de9ff41836946690093f61acde90161f3
:1011500004461746039216444ff002086d46424675
:101160002946206800f0e5feb04209d1d4e90232f8
:10117000c4e905331a44a262384604b0bde8f081e0
:1011800000280dda6268002342f01002b8f1020f65
:10119000a362c4e90533626015d06b68ff1aebe700
:1011a0006b68984288bf0835a6eb000688bfc01a56
:1011b0002b6803442b606b68a3eb000088bf08f129
:0a11c000ff386860cbe71f46d6e752
:020000040000fa
:020000040c00ee
:0211ca00fee73e
:020000040000fa
:020000040c00ee
:1011cc0080b487b000af786039600023fb757b6812
:1011dc00fb607b68bb6000233b617b68002b25d0e8
:1011ec001ee000bf154b1b7edbb203f00103002b8e
:1011fc00f8d0124b5b6803f00703012b06d0fa689a
:10120c003b6913441a780d4b9a6206e03b695b000c
:10121c00ba6813441a88094b9a623b6901333b61e3
:10122c003a693b689a42dcd30123fb75fb7d184677
:10123c001c37bd465df8047b704700bf002000469c
:020000040000fa
:020000040c00ee
:10124c002de9ff471d460c9b13f0010906468a4603
:10125c00144601d195420bd822465146304600f037
:10126c00c6fca54204d82546284604b0bde8f08744
:10127c002f1b102f3a464ff0200128bf1022684632
:10128c00b84600f0a5ffb8f10f0f11d83b096ff06d
:10129c000f0202fb03726946304600f0a8fcb9f15c
:1012ac00000fe1d122465146304600f0a0fcdbe7ae
:1012bc0010226946304600f09afca8f11008e2e7cb
:020000040000fa
:020000040c00ee
:1012cc00842910b523d00cdc812903d0822913d0ba
:1012dc0080290bd119680c1d1c600b6803601a6007
:1012ec0013e0902921d003dc882917d0002010bdf1
:1012fc00a029efd0c029ece719680c1d1c600b6805
:10130c000360d1171046c3e900010120efe719680b
:10131c000c1d1c600b6803601a80f6e719680c1d25
:10132c001c600b6803601a70efe719680c1d1c60d9
:0c133c0009680160d317c1e90023e6e74f
:020000040000fa
:020000040c00ee
:1013480080b400af1a4bdb69194a43f4e023d36138
:1013580000bf174bdb6803f4e063b3f5e06ff8d127
:10136800144b0c229a64134be1225a64114b00224d
:10137800da6600bf0f4b9b6f03f04003402bf9d098
:101388000c4b8322da640b4b1a6c0a4940f6022391
:1013980013430b6400bf074b1b6903f08073b3f161
:1013a800807ff8d100bfbd465df8047b704700bf61
:0813b80000000244000004449f
:020000040000fa
:020000040c00ee
:1013c000f8b5846a05460f46164654b1ab6a6a6999
:1013d0009b1ab3420bd2324639462846fff7b0fe7d
:1013e000f8bd00f0c3fe0028f0d02046f8e7002e3c
:1013f000f1d095f93430002b1bdbdbb23446621e92
:10140000b95c994212d1224639462846fff798fe28
:10141000a042e5d32744341b22463946686900f0d0
:1014200071fe6b691c446c613046d9e71446002a92
:06143000e5d13446f0e7af
:020000040000fa
:020000040c00ee
:1014360080b586b000af0346fb712020fff711fa96
:1014460003467b6104220021786900f0c4fe7b69b3
:1014560014221a807b6900221a717b6903225a7151
:10146600fa797b691a611020fff7fbf903463b61a5
:101476003969786900f005fe3b699b68fb6078690d
:10148600fff7f7fb3869fff7f4fbfb6818461837d8
:04149600bd4680bd12
:020000040000fa
:020000040c00ee
:10149a007fb5c36800911546002b18bf013a019227
:1014aa0082680446cde902230e4602226946006894
:1014ba0000f025fd002808dc00f0180383f008027c
:1014ca0063681343636005460fe0019a8242fad2c9
:1014da00a368e363801ae268184420642ab15a1c9c
:1014ea00e2632e441b7806f8013c284604b070bd1e
:020000040000fa
:020000040c00ee
:0214fa00704739
:020000040000fa
:020000040c00ee
:1014fc000e4a38b5002313600d4a0e4c13600e4a89
:10150c000e4d13600e4a13600e4a13600e4a53625e
:10151c0013610123936000f076fe00f0cef8ac422c
:10152c0000d338bd54f8043b9847f8e790060220e6
:10153c00200602200c00000c1c0602201000000cdf
:0c154c00140602201806022024060220cb
:020000040000fa
:020000040c00ee
:1015580070b5d0e90245a54217d10122a1f12003b7
:10156800c1f1200622fa06f602fa03f333438a4051
:10157800db43d6431ab10c490a6832400a605a1c48
:101588001fbf094a51680b4053604368ac6043f081
:10159800010223f00103e56042601844036843f048
:0c15a8000103036070bd00bf08040220b6
:020000040000fa
:020000040c00ee
:1015b40020212223242425252626272728282828d5
:1015c400292929292a2a2a2a2b2b2b2b2c2c2c2c6f
:1015d4002c2c2c2c2d2d2d2d2d2d2d2d2e2e2e2e37
:1015e4002e2e2e2e2f2f2f2f2f2f2f2f00011702ad
:1015f4001d1813031e1b190b1408040d1f161c12af
:0c1604001a0a070c1511090610050f0e3c
:020000040000fa
:020000040c00ee
:1016100038b50d46044608b9002038bd43689b061e
:1016200007d5d0e905239a4216d80023c4e905332b
:10163000a362d4e90f13994204d20122c91a206887
:1016400000f02afe0023c4e90f33002de4d0206807
:10165000bde8384000f015be0022c36a1146984725
:0c1660006369002be1d14ff0ff30d6e7aa
:020000040000fa
:020000040c00ee
:10166c0080b584b000af78602020fff7f7f8034610
:10167c00fb6004220021f86800f0aafdfb6814222c
:10168c001a80fa68937843f020039370fb68002269
:10169c001a71fb6801225a71fb687a681a61f86842
:1016ac00fff702fdf868fff7e1fa00f0bbfbb8604a
:0a16bc00bb6818461037bd4680bd1c
:020000040000fa
:020000040c00ee
:0216c60070476b
:020000040000fa
:020000040c00ee
:1016c8002de9ff41134dd1f80080af88adf80c70bb
:1016d80006462868029002aca8798df80e00002a08
:1016e80018bf1446d1e901571a461bb9204600f025
:1016f8002dfd0246002d02dbaa4228bf2a46cdf85e
:1017080000803b4621463046fff79cfd04b0bde80b
:08171800f08100bf5022000c1b
:020000040000fa
:020000040c00ee
:1017200008b500f0c7f80c4b98470c4b984700f0f1
:1017300029fc00f063fc00f0e3f8094b23f07f0381
:10174000084a9360084b9847084b9847084b9847be
:1017500000f0d2f9fee700bffb14000cfb14000cf4
:101760000000000000ed00e0fd14000cfb14000c74
:04177000fb14000c5a
:020000040000fa
:020000040c00ee
:1017740080b584b000af78602020fff773f803468b
:10178400fb6004220021f86800f026fdfb681422a7
:101794001a80fa68937843f020039370fb68002260
:1017a4001a71fb6801225a71fb687a681a61f86839
:1017b400fff77efcf868fff75dfa0123184610373f
:0417c400bd4680bde1
:020000040000fa
:020000040c00ee
:1017c80080b483b000af0023fb71104b5b8b9bb2de
:1017d80003f00703bb80bb88002b10d00b4b802283
:1017e8001a760a4b07225a8302e0084b9b6afb7160
:1017f800064b1b7edbb203f00403042bf5d000bfbd
:101808000c37bd465df8047b704700bf00200046da
:020000040000fa
:020000040c00ee
:1018180013b5836a8df80710044673b16369a26a29
:10182800934212d3e36a01220df10701204698473b
:10183800012806d19df8070005e000f093fc002878
:10184800ecd04ff0ff3002b010bd9df8070094f9be
:0e18580034209042e6d05a1c62611870f3e70b
:020000040000fa
:020000040c00ee
:021866007047c9
:020000040000fa
:020000040c00ee
:1018680080b400af0f4b104a1a600e4b4ff6da42a5
:101878009a810c4b4ff440325a6000bf094bdb6928
:10188800002bfbd1074b1b68064a43f00203136089
:1018980000bf044bdb69002bfbd100bfbd465df8e0
:0c18a800047b7047002000460401304023
:020000040000fa
:020000040c00ee
:1018b400bff34f8fbff36f8f0e4b002000210e4af2
:1018c400e3e802019342fbd1002300200021e3e876
:1018d4000201b3f5003ffad14ff00053002000217c
:1018e400044ae3e802019342fbd1bff34f8fbff3f5
:0c18f4006f8f70470000022000001220df
:020000040000fa
:020000040c00ee
:1019000070b50e4b0e4a0021934208d30d480e4d80
:101910004ff6ff76016829b943681bb970bd03f81b
:10192000011bf1e783684268334000f10c0455f86d
:1019300023302046984704eb8000ebe700000220ac
:0c194000000002202000000cb421000c6c
:020000040000fa
:020000040c00ee
:10194c00022a70b5044616461d461ad043689b06fb
:10195c0017d441b9002d08bf4ff4806505f108007c
:10196c00fef77cff01466368012e43f020036360a1
:10197c00c4e9021514bfff230a2384f83430024b48
:0c198c00e362002070bd00bfc113000c1e
:020000040000fa
:020000040c00ee
:1019980080b485b000af78607b6803f00703fb6014
:1019a8000b4bdb68bb60ba684ff6ff031340bb60a4
:1019b800fb681a02bb681a43064b1343bb60044a10
:1019c800bb68d36000bf1437bd465df8047b704721
:0819d80000ed00e00000fa053b
:020000040000fa
:020000040c00ee
:1019e00080b500af0020fff7d7ffbff35f8f62b66f
:1019f0000c4b5b6a0b4a43f480235362094b5b69cf
:101a0000084a43f010035361064b5b6a054a43f4ee
:101a100000335362034b5b6a024a43f480335362e0
:081a200000bf80bd00ed00e0f5
:020000040000fa
:020000040c00ee
:101a280080b586b000aff860b9607a6000237b614a
:101a38000023fb74fb68002b10d17b68002b0dd0b2
:101a48000121b868fff798fa0346fb74fb7c83f022
:101a58000103dbb2002bf3d101237b617b691846bc
:061a68001837bd4680bde9
:020000040000fa
:020000040c00ee
:101a6e0010b50278202a034600f10100f9d0a2f148
:101a7e0009010429f5d92b2a07d02d2a11d10121cc
:101a8e000133013b00200a2403e00021f8e7604304
:101a9e00801a13f8012f303a092af8d901b94042b9
:061aae0010bd0021ede770
:020000040000fa
:020000040c00ee
:101ab40080b400af0c4b02221a6100bf0a4b9b6832
:101ac40003f00103012bf9d1084b094a1a6200bf44
:101ad400064b5b6803f00403042bf9d000bfbd463a
:101ae4005df8047b704700bf0020054400000544f6
:041af40006010100e6
:020000040000fa
:020000040c00ee
:101af80080b582b000af002000f080f9fef782ffc9
:101b0800094800f089fa00237b6002e07b68013312
:101b18007b607b68054a9342f8d9054b4ff48002f5
:101b2800c3f89c20efe700bf6820000c40420f007c
:041b380000008444e1
:020000040000fa
:020000040c00ee
:101b3c0010b5054c227832b9044b13b10448aff3fd
:101b4c0000800123237010bd6406022000000000f9
:101b5c000000000008b5034b1bb103490348aff369
:101b6c00008008bd00000000680602200000000094
:020000040000fa
:020000040c00ee
:101b7c000c4a036810b5546a0b4a591e121b8a4250
:101b8c000ad22bb1094b0c221a604ff0ff3010bd5a
:101b9c00102202600020fae7173323f00f030360d2
:101bac00f8e700bf24060220efffff7f9406022017
:020000040000fa
:020000040c00ee
:101bbc0010b44c68a40602460b4603d45df8044be3
:101bcc0000f086b891f93410c0b2814203d0596943
:101bdc009c6aa14205d3114618465df8044bfff7e9
:0e1bec0015be4c1c5c610a705df8044b70471e
:020000040000fa
:020000040c00ee
:101bfa0038b5436813f4807f0446154610d003694c
:101c0a0040699a4228bf1d462a4600f076fa63695f
:101c1a0022692b44551b0022636125611a7038bd65
:0a1c2a00db06fcd400f0a9faf9e78c
:020000040000fa
:020000040c00ee
:101c340080b586b000aff860b9607a600023fb75a8
:101c4400fb68012b0bd17968b868fff7bdfa03462e
:101c5400fb75fb7d83f00103dbb2002bf3d17b68c2
:081c640018461837bd4680bd8b
:020000040000fa
:020000040c00ee
:101c6c0000090138202813d9b0f5007f05d2094ba3
:101c7c0003ebd00010f8040c7047b0f5e05f06d809
:101c8c00044b03ebd01010f8040c103070473f20bd
:081c9c00704700bfb415000cf5
:020000040000fa
:020000040c00ee
:101ca40030b50c4a002312f8134024b902eb430365
:101cb4005b78184630bd01680d78a54209bf02eb78
:101cc400430301335b78013114bfdbb201600a2b9b
:081cd400e9d9eee7c820000c7d
:020000040000fa
:020000040c00ee
:101cdc0007b54a68c0b2d2050b468df8070006d589
:101cec004a69511c5961107003b05df804fb012264
:101cfc000df10701184600f03ffa10b19df80700ee
:081d0c00f2e74ff0ff30efe7b2
:020000040000fa
:020000040c00ee
:101d140080b500af00f010fafff714fbfff7c8fe20
:101d240000f042f8064b4122c3f8d82000bf044b10
:101d3400d3f8d83003f04003402bf8d100bf80bd66
:041d44000000054452
:020000040000fa
:020000040c00ee
:101d4800426822f00102531a102b10b40ed944181d
:101d580043f0010341f00101216063608350416059
:101d680004f108005df8044bfef782bf5df8044bf0
:021d78007047b2
:020000040000fa
:020000040c00ee
:101d7a0070b505462c68e30701d500200fe0204620
:101d8a00fff76fff064600f08af92868a042f1d1f2
:101d9a0020f00100281a3146fff7d9fb012070bd57
:020000040000fa
:020000040c00ee
:021daa00704780
:020000040000fa
:020000040c00ee
:101dac0080b400af074b084a5a6200bf054b5b6812
:101dbc0003f00803082bf9d000bfbd465df8047b87
:0c1dcc00704700bf000005440601020043
:020000040000fa
:020000040c00ee
:101dd80080b500af074b1b681b680021184600f050
:101de8000cfa054b1b681b680021184600f005fa21
:0c1df80000bf80bda0060220840702206e
:020000040000fa
:020000040c00ee
:101e040080b582b000af7860fff7e4fffff708f910
:101e1400fff77efffff726fd00f001fa00f09cf8c3
:0c1e2400fff7dcfd00bf0837bd4680bda5
:020000040000fa
:020000040c00ee
:101e300080b582b000af1020fef716fd03467b6030
:101e40007868fef795ff7b689b683b607868fef7d3
:0c1e500013ff3b6818460837bd4680bdf4
:020000040000fa
:020000040c00ee
:101e5c0070b505466c68e30701d500200de02046ff
:101e6c00fff7fefe064600f019f96b68a342f1d1ac
:0c1e7c0028463146fff76afb012070bdcc
:020000040000fa
:020000040c00ee
:101e8800074b1968024609b90649196018680649d6
:101e980002448a4294bf1a604ff0ff30704700bf77
:0c1ea800980602209007022090090220fa
:020000040000fa
:020000040c00ee
:101eb400802910db812901dd83290cd113680733c4
:101ec40023f0070303f108011160d3e90023c0e9fb
:0a1ed4000023012070470020704732
:020000040000fa
:020000040c00ee
:101ede0070b5002902fb01f614460d4618bf1446d4
:101eee0001463246184608bf002400f044f98642e7
:0a1efe0018bfb0fbf5f4204670bddc
:020000040000fa
:020000040c00ee
:101f08002de9f0410024804617460e462546bd427d
:101f180002db2046bde8f081726856f8081b40468f
:0a1f2800fff77efd01350444f1e7e8
:020000040000fa
:020000040c00ee
:101f32002de9f0410024804617460e462546bd4253
:101f420002db2046bde8f081726856f8081b404665
:0a1f5200fff76ffe01350444f1e7cc
:020000040000fa
:020000040c00ee
:101f5c0080b400af074b4ff40012c3f89820054b28
:101f6c004ff48002c3f8982000bfbd465df8047b97
:081f7c00704700bf000084441f
:020000040000fa
:020000040c00ee
:101f8400eff3108172b6074ad2f8883043f4700335
:101f9400c2f88830bff34f8fbff36f8f01b962b6b9
:081fa400704700bf00ed00e0f2
:020000040000fa
:020000040c00ee
:101fac0010b5084c2368196800f046f8002807dbc8
:101fbc0023680a20196800f03cf9c00f404210bd9c
:081fcc000120fbe7840702205d
:020000040000fa
:020000040c00ee
:101fd40090f948305a1e1343426880f8483012f092
:101fe40004031bbf42f010024260c0e90f334ff0fc
:081ff400ff3008bf18467047da
:020000040000fa
:020000040c00ee
:101ffc00bff34f8fbff36f8f054b0722c3f89022af
:10200c00c3f89422bff34f8fbff36f8f704700bf9d
:04201c0000ed00e0f3
:020000040000fa
:020000040c00ee
:102020000fb407b5064b04aa1b6852f8041b1868c6
:10203000019200f075f803b05df804eb04b070474e
:0420400084070220ef
:020000040000fa
:020000040c00ee
:1020440070b50e46054600f083f833460446024652
:1020540001212846fff741ff001b18bf4ff0ff3056
:0220640070bd4d
:020000040000fa
:020000040c00ee
:102068000d0a4c454431206f6e2074686520626ffc
:1020780061726420626c696e6b73202020200000fe
:020000040000fa
:020000040c00ee
:1020880080b582b000af786039607868fff70ef8e5
:102098003868fef769fe012318460837bd4680bd3b
:020000040000fa
:020000040c00ee
:1020a800064b013053f830203ab9c100a1f10802bb
:1020b8001a44194443f830204a6070470804022043
:020000040000fa
:020000040c00ee
:1020c80068076c094c836a9074a07ac0008068889d
:0e20d80000846c820081286e696c290025004e
:020000040000fa
:020000040c00ee
:1020e60010b50023934206d113f0030018bf012058
:0e20f60000eb930010bdc45ccc540133f2e744
:020000040000fa
:020000040c00ee
:102104005ab110b40a44431e11f8014b03f8014fad
:0c2114009142f9d15df8044b7047704710
:020000040000fa
:020000040c00ee
:1021200013b50446019201aafef71afa636813f088
:0c213000100f18bf4ff0ff3002b010bdc0
:020000040000fa
:020000040c00ee
:10213c0080b400af034b01221a6100bfbd465df8ad
:08214c00047b704700200444ed
:020000040000fa
:020000040c00ee
:10215400037833b1034613f8012f002afbd1181a70
:0821640070471846704700bfe8
:020000040000fa
:020000040c00ee
:10216c0010b50446fff730ff28b9a368e268c4e94c
:08217c0005331344a36210bdfa
:020000040000fa
:020000040c00ee
:1021840010b4c46a1cb123465df8044b18470068b8
:082194005df8044bfff74cbda0
:020000040000fa
:020000040c00ee
:10219c000068002808b501da002008bdfff76efec4
:0621ac00431cfad1f8e724
:020000040000fa
:020000040c00ee
:1021b400f121000ce720000c8922000c8922000c7c
:0421c4008922000c60
:020000040000fa
:020000040c00ee
:1021c80008b500f03df8024b1860586008bd00bf24
:0421d800800602205b
:020000040000fa
:020000040c00ee
:1021dc0032b1c9b20244034603f8011b9342fbd14e
:0421ec00704700bf79
:020000040000fa
:020000040c00ee
:1021f0000a440023914201d10020704701f8013bbd
:02220000f8e7fd
:020000040000fa
:020000040c00ee
:1022020000294ff480630cbf02220022fff79dbb1e
:020000040000fa
:020000040c00ee
:1022120008b5fff7d8fffff725fbfff723fb08bd43
:020000040000fa
:020000040c00ee
:0e22220080b400af00bfbd465df8047b70477e
:020000040000fa
:020000040c00ee
:0e223000a0f14103192b98bf40f02000704729
:020000040000fa
:020000040c00ee
:08223e0008b5fff7bcfc08bd68
:020000040000fa
:020000040c00ee
:0822480000487047080702205e
:020000040000fa
:020000040c00ee
:07225000286e756c6c29007b
:020000040000fa
:020000040c00ee
:0622580080b400affee7b8
:020000040000fa
:020000040c00ee
:06225e0080b400affee7b2
:020000040000fa
:020000040c00ee
:0622640080b400affee7ac
:020000040000fa
:020000040c00ee
:06226a0080b400affee7a6
:020000040000fa
:020000040c00ee
:0622700080b400affee7a0
:020000040000fa
:020000040c00ee
:0622760080b400affee79a
:020000040000fa
:020000040c00ee
:06227c000068fff7d9bc69
:020000040000fa
:020000040c00ee
:062282004ff0ff30704731
:020000040000fa
:020000040c00ee
:04228800002070477b
:020000040000fa
:020000040c00ee
:04228c000020704777
:020000040000fa
:020000040c00ee
:042290000020704773
:020000040000fa
:020000040c00ee
:04229400002070476f
:020000040000fa
:020000040c00ee
:04229800002070476b
:00000001FF
