:10000000F07F0020A9040000A1070000A307000062
:1000100000000000000000000000000000000000E0
:100020000000000000000000000000009F0700002A
:1000300000000000000000009F0700009F07000074
:100040009F0700009F0700009F0700009F07000018
:100050009F0700009F0700009F0700009F07000008
:100060009F0700009F0700009F0700009F070000F8
:100070009F0700009F0700009F0700009F070000E8
:100080009F0700009F0700009F0700009F070000D8
:10009000000000009F0700009F0700009F0700006E
:1000A0009F0700009F0700009F0700009F070000B8
:1000B0009F0700009F0700009F0700009F070000A8
:1000C0009F0700009F0700009F070000000000003E
:1000D0000000000000000000000000009F0700007A
:1000E0009F0700009F0700009F070000000000001E
:1000F0000000000000000000000000009F0700005A
:100100009F0700009F0700009F0700009F07000057
:100110009F0700009F0700009F0700009F07000047
:100120009F0700009F0700009F0700009F07000037
:100130009F0700009F0700009F0700009F07000027
:100140009F0700009F0700009F0700009F07000017
:100150009F0700009F0700009F070000F07F00201E
:10016000A9040000A1070000A30700000000000090
:10017000000000000000000000000000000000007F
:1001800000000000000000009F07000000000000C9
:10019000000000009F0700009F0700009F0700006D
:1001A0009F0700009F0700009F0700009F070000B7
:1001B0009F0700009F0700009F0700009F070000A7
:1001C0009F0700009F0700009F0700009F07000097
:1001D0009F0700009F0700009F0700009F07000087
:1001E0009F0700009F0700009F070000A507000071
:1001F0009F0700009F0700009F0700009F07000067
:100200009F0700009F0700009F0700009F07000056
:100210009F0700009F0700009F0700009F07000046
:100220009F0700009F070000A5070000A50700002A
:10023000A5070000A50700009F0700009F0700001A
:100240009F0700009F070000A5070000A50700000A
:10025000A5070000A50700009F0700009F070000FA
:100260009F0700009F0700009F0700009F070000F6
:100270009F0700009F0700009F0700009F070000E6
:100280009F0700009F0700009F0700009F070000D6
:100290009F0700009F0700009F0700009F070000C6
:1002A0009F0700009F0700009F0700009F070000B6
:1002B0009F0700009F070000F8B5C046F8BC08BCC7
:1002C0009E46704761060000F8B5C046F8BC08BC01
:1002D0009E4670473D06000041F20003C4F2000351
:1002E0000220187641F20041C4F2000100220A7493
:1002F00041F60001C4F2000108621A8641F20002D0
:10030000C4F200028021490413690B42FCD046F27A
:100310002003C0F280031B685B009B0E9B0240F22F
:1003200000221343D200C4F2000253630023138659
:1003300041F20002C4F200028021490413690B4219
:10034000FCD041F20003C4F2000340F262421A867C
:1003500041F20002C4F200028021490413690B42F9
:10036000FCD041F60043C4F2000340F20312C0F295
:1003700001025A6241F60042C4F2000208215368A9
:100380001942FCD141F60043C4F2000340F20712C7
:10039000C0F201021A6241F60042C4F200020421D6
:1003A00053681942FCD141F60043C4F200039C2279
:1003B0004021995041F60042C4F200029C2013589B
:1003C0001942FCD041F60043C4F20003C822402188
:1003D000995041F60042C4F20002C8201358194255
:1003E000FCD041F60043C4F20003D02240219950D2
:1003F00041F60042C4F20002D02013581942FCD04A
:1004000040F60003C4F200034FF6BD72C0F21F02B3
:10041000DA61704740F2000040F20002F0B5C646D3
:10042000C2F20000C2F2000200B5030000219042B7
:1004300003D2197001339342FBD140F27C62C0F2C7
:100440000002136854681900214340F20B0C40F27B
:100450000308002681B1170091680C3779B91A1981
:100460001CB11E7001339342FBD13A0013685468EB
:10047000190021430029EED104BC9046F0BD61462D
:10048000C91A1D1951182CB15A1C505C1870130050
:100490009542F9D1434623405A1E9341A4081C19A2
:1004A000A4003F193A00E1E710B540F20003C0F2A2
:1004B000000323B140F20003C0F20003984740F26A
:1004C0000003C0F2000323B140F20003C0F20003B6
:1004D0009847FFF79FFF40F20003C0F200037F221E
:1004E00093434EF60052CEF20002936040F29553D1
:1004F000C0F20003984740F20003C0F2000323B1AA
:1005000040F20003C0F20003984740F20003C0F23B
:10051000000323B140F20003C0F20003984700F04B
:10052000CDF8FEE743F20023C4F200038822D20391
:100530001A61552202219954543A56315A540131C4
:100540005A541D3966205854C8218904D966D421CB
:100550005A5401315A5409315A5401315A54B9325A
:10056000BD3999540532113199540022CCF2300230
:10057000B9315A5040F20012802109039950C0222B
:10058000520340F210115A50443160385854183117
:100590005A50704700230E4A10B513600D4A0E4C96
:1005A00013600E4A13600E4A13600E4A13600E4A1F
:1005B000536213610133936000F0F5F800F0F3F833
:1005C0000A4B9C4200D310BD08CC9847F8E7C046C0
:1005D000700000200C000020C40200000800002071
:1005E000000000200400002010000020C8020000CD
:1005F000BFF35F8F62B64EF20013CEF2000340F2FB
:100600008022985880214903014399509A5840F21A
:1006100084229958082001439950995899580830D4
:10062000014399509958995810300143995099585D
:1006300099582030014399509B58704710B5054C8C
:10064000227832B9044B13B1044800E000BF012303
:10065000237010BD500000200000000000000000CA
:10066000034B10B51BB10349034800E000BF10BDA8
:100670000000000054000020000000005000002096
:100680001C000000000000006C00002004000000BE
:1006900000000000000000205000000000000000EA
:1006A00070000020040000000000000000000000B6
:1006B00000000000222222222222222210B582B033
:1006C0008023DB021C68002000F02CF8631C0FD094
:1006D00084F388880423C0F204031B680193019CFF
:1006E00064086400200021002200230000F001F8CB
:1006F000FEE7E0B545464E465746E0B45D4620B4B9
:10070000254626462746A046A146A246A346A4461D
:1007100084F30088A44720BCAB46E0BCBA46B1468F
:10072000A846E0BD10B545F20003C4F20013042250
:100730005A6000F00DF8FFF7F5FEFFF7CDFD00F071
:100740001BF800F02BF800F028F8FFF751FF10BD60
:1007500040F20043C4F2000300221A819A79012179
:100760000A439A7102229A705202C4F200020121D5
:1007700093790B42FCD0704745F20003C4F200139A
:1007800006225A60053A1A727047401801000200AA
:10079000030084468EF30088744770477047FEE775
:0807A000FEE7FEE7FEE77047EB
:020000040003F7
:08FE00007FE97FE9C0F7C1BCF6
:020000040004F6
:10000000F8FF0020259D0400A9C90400AFC9040021
:1000100000000000000000000000000000000000E0
:100020000000000000000000000000009B2E040003
:1000300000000000000000009B2E04009B2E040026
:1000400000000000000000000000000000000000B0
:1000500000000000000000000000000000000000A0
:100060000000000000000000000000000000000090
:100070000000000000000000000000000000000080
:100080000000000000000000000000000000000070
:1000900051C4040000000000000000000000000047
:1000A0000000000000000000000000000000000050
:1000B0000000000000000000000000000000000040
:1000C000000000000000000000000000D92404002F
:1000D000D9240400D9240400D9240400000000001D
:1000E0000000000000000000000000009B2E040043
:1000F0009B2E04009B2E04009B2E04000000000099
:1001000000000000000000000000000000000000EF
:1001100000000000000000000000000000000000DF
:1001200000000000000000000000000000000000CF
:1001300000000000000000000000000000000000BF
:1001400000000000000000000000000000000000AF
:10015000000000000000000000000000F8B5C046EC
:10016000F8BC08BC9E467047DDB40400F8B5C04634
:10017000F8BC08BC9E467047B9B40400042A0000CD
:100180000100000090B58BB000AF78607B685B78B1
:1001900001225340DBB2002B01D000F0E9FD7B6867
:1001A0009B6B002B01D100F0E3FD7B685B6A3B6237
:1001B0003B6A9B8B9BB21A0040F20023134040F233
:1001C000002293420ED13B6A1B8B9BB21A0040F275
:1001D0000023134040F20022934203D13B6A40F2D5
:1001E00000229A833B6A9B8B9BB21A0040F2001359
:1001F000134040F2001293420ED13B6A1B8B9BB21C
:100200001A0040F20013134040F20012934203D14F
:100210003B6A40F200129A833B6A9B8B9BB21A00A6
:1002200080231340802B0AD13B6A1B8B9BB21A00A0
:1002300080231340802B02D13B6A80229A833B6A41
:100240009B8B9BB21A0040231340402B0AD13B6A80
:100250001B8B9BB21A0040231340402B02D13B6AF8
:1002600040229A833B6A9B8B9BB21A002023134047
:10027000202B0AD13B6A1B8B9BB21A002023134010
:10028000202B02D13B6A20229A833B6A9B8B9BB234
:100290001A0001231340012B1BD13B6A1B8B9BB21D
:1002A0001A0001231340012B13D13B6A01229A83C8
:1002B0003B6A01229A823B6A10229A833B6A10228F
:1002C0001A837B689C6B7B685B6B0022042118009F
:1002D000A0473B6A9B8B9BB21A0010231340102B44
:1002E0001BD13B6A1B8B9BB21A0010231340102BAF
:1002F00013D13B6A10229A833B6A10229A823B6A8E
:1003000001229A833B6A01221A837B689C6B7B687B
:100310005B6B002203211800A0473B6A9B8B9BB2BA
:100320001A0004231340042B12D13B6A1B8B9BB28F
:100330001A0004231340042B0AD13B6A04229A8337
:100340007B689C6B7B685B6B002207211800A047D1
:100350003B6A9B8B9BB21A0008231340082B31D1B8
:100360003B6A1B8B9BB21A0008231340082B29D130
:100370007B682122002199543B6A1B7BDBB29B08DE
:1003800003221A404CF6BC13C0F20403995C7B684C
:10039000302299547B684C334022002118000CF025
:1003A000B9F97B689B6B3BB17B689C6B7B685B6B33
:1003B000002202211800A0473B6A80229A723B6A01
:1003C00008229A833B6A40F207129B5CDBB21A0058
:1003D00010231340102B00D077E03B6A40F2091243
:1003E0009B5CDBB21A0010231340102B6DD17B688D
:1003F0005B6CFB61FB69DB7902229343DAB2FB6938
:10040000DA71FB690833DA79FB69083302218A4320
:10041000D2B2DA71FB691B68BB61BB69002B4BD0A0
:10042000BB6918687B68DB6C082219000CF036F990
:100430003B6A40F20712102199543B6A40F20412C1
:1004400040219954BB691B6806331A7816217B1822
:100450001A80BB691B681B785BB2DBB2DB09DAB2BE
:100460001423FB181A807B181B8823B97B68212270
:10047000072199540DE01423FB181B88012B04D18C
:100480007B6821220621995403E07B682122022106
:100490009954BB6902221A72BB6908225A60BB696F
:1004A0009A69FB691A60BB69DB6873B1BB69DB6879
:1004B000BA691000984708E07B682122012199540D
:1004C0003B6A40F20812102199543B6A40F207122D
:1004D0009B5CDBB21A0002231340022B00D0BBE06E
:1004E0003B6A40F209129B5CDBB21A000223134004
:1004F000022B00D0B0E07B685B6CFB61FB690833CA
:10050000FB61FB691B68002B00D1A5E0FB691B6840
:10051000BB617B6821229B5C082B1BD17B6821225D
:1005200000219954BB6900221A72BB699A69FB6960
:100530001A60BB6900225A60BB69DB6823B1BB69E2
:10054000DB68BA69100098473B6A40F20712022143
:10055000995481E0BB691B6A002B3AD1BB691B7CB3
:100560005BB2002B17DABB691B7C7F221340DAB227
:10057000BB691A747B681B6E9B0B9A037B681A66B7
:100580003B6A40F20712022199543B6A40F205127D
:100590008021995460E07B68212205219954BB6930
:1005A00000221A72BB699A69FB691A60BB69DB6831
:1005B00023B1BB69DB68BA69100098473B6A40F217
:1005C0000712022199543B6A40F2041240219954C7
:1005D00042E0BB691B6AFA699288934205D8BB69FD
:1005E0001A6A2623FB181A8004E02623FB18FA69EE
:1005F00092881A807B68DB6D1800BB691A68BB693A
:100600005968BB691B6ACB1AD11826243B191B8871
:100610001A000CF043F8BB691A6A21007B181B888A
:10062000D21ABB691A627B681B6E9B0B9A037B68AC
:100630001A667B681A6E7B181B889B049B0C1A43F6
:100640007B681A663B6A40F20712022199543B6AA2
:1006500040F20512802199543B6A40F207129B5CDC
:10066000DBB21A0001231340012B00D0C7E03B6A24
:1006700040F209129B5CDBB21A0001231340012BEC
:1006800000D0BCE07B685B6CFB617B6821229B5CDB
:10069000052B32D1FB691B682BB3FB691B68BB615F
:1006A000BB6900221A727B682122002199543B6A9F
:1006B00040F20712012199543B6A40F20412402192
:1006C0009954BB699A69FB691A60BB6900225A6038
:1006D000BB69DB68002B00D191E0BB69DB68BA69BC
:1006E000100098478BE07B682122042199543B6AD3
:1006F00040F208120121995481E0FB691B684BB953
:100700007B682122032199543B6A40F2081201219F
:10071000995474E0FB691B68BB617B681B6D9AB2DE
:1007200026203B189204920C1A80BB691A6A3B1867
:100730001B88D218BB695B689A4208D9BB695B68A1
:1007400099B2BB691B6A9AB23B188A1A1A80BB69B4
:100750001A68BB691B6AD0187B68DB6C19002624F9
:100760003B191B881A000BF099FFBB691A6A21001C
:100770007B181B88D218BB691A62BB691A6ABB69ED
:100780005B689A4210D2FB699B887A1812889A4259
:100790000AD33B6A40F20412402199543B6A40F26A
:1007A0000712012199542AE0BB691A6ABB695B6888
:1007B0009A4203D3BB6900221A7202E0BB6901228C
:1007C0001A727B682122072199543B6A40F2071272
:1007D000012199543B6A40F2041240219954BB69AB
:1007E0009A69FB691A60BB691A6ABB695A60BB697E
:1007F000DB6823B1BB69DB68BA6910009847252321
:10080000FB1801221A70ACE13B6A1B8C9BB21A00E8
:1008100025203B181B781A41130001221340002B9E
:1008200000D197E13B181B783A6A40F209115B014D
:10083000D3185B181B78DBB23B6101007B181B7877
:100840003A6A08335B01D31807331B78DBB2FB60CD
:10085000FB6808221340082B31D13B690822134062
:10086000082B2CD17B181B787A6803335B01D318D3
:1008700006331B78DBB21A0002231340022B1ED171
:100880007B181B787A6803335B01D31806331B7817
:10089000DAB208007B181B7802218A43D1B27A6849
:1008A00003335B01D31806330A1C1A703B181B78FC
:1008B0003A6A08335B01D318073308221A70FB68C1
:1008C00002221340022B00D045E13B690222134073
:1008D000022B00D03FE125217B181B787A6810336A
:1008E0009B00D31804331B68FB61FB690833FB6171
:1008F000FB691B68002B00D12DE1FB691B68BB6104
:10090000BB691B6A002B00D0BAE0BB691B7C5BB2E1
:10091000002B2BDABB691B7C7F221340DAB2BB6948
:100920001A747B181B787A685B01D31860331A68D5
:1009300008007B181B78920B920379685B01CB1837
:1009400060331A6001007B181B783A6A08335B0138
:10095000D31807330A221A707B181B783A6A0833B7
:100960005B01D318053380221A70F4E0BB690022C2
:100970001A72BB699A69FB691A60BB69DB6823B1AB
:10098000BB69DB68BA6910009847FB691B68A3B9AB
:1009900025203B181B783A6A40F208115B01D318F6
:1009A0005B180A221A703B181B783A6A08335B01FD
:1009B000D31807330A221A70CDE0FB691B68BB61AC
:1009C000BB691B6AFA699288934205D8BB691A6AA7
:1009D0002623FB181A8004E02623FB18FA69928864
:1009E0001A80BB691A68BB695968BB691B6ACB1A54
:1009F000D21825203B181B7811007A685B01D318A8
:100A00005C331960BB691A6A26243B191B88D21A09
:100A1000BB691A623B181B787A685B01D318603394
:100A20001A683B181B78920B920379685B01CB180C
:100A300060331A603B181B787A685B01D318603307
:100A400019683B191B889B049A0C3B181B780A43B6
:100A500079685B01CB1860331A603B181B783A6ADF
:100A600008335B01D31807330A221A703B181B782E
:100A70003A6A08335B01D318053380221A706AE0A2
:100A8000BB691B6AFA699288934205D8BB691A6AE6
:100A90002623FB181A8004E02623FB18FA699288A3
:100AA0001A80BB691A68BB695968BB691B6ACB1A93
:100AB000D21825203B181B7811007A685B01D318E7
:100AC0005C331960BB691A6A26243B191B88D21A49
:100AD000BB691A623B181B787A685B01D3186033D4
:100AE0001A683B181B78920B920379685B01CB184C
:100AF00060331A603B181B787A685B01D318603347
:100B000019683B191B889B049A0C3B181B780A43F5
:100B100079685B01CB1860331A603B181B783A6A1E
:100B200008335B01D31807330A221A703B181B786D
:100B30003A6A40F209115B01D3185B1802221A705D
:100B40003B181B783A6A08335B01D31805338022BF
:100B50001A7000E0C04625217B181A787B180132F4
:100B60001A702522BB181B78012B00D84CE6BB1845
:100B700001221A70F6E03B6A1B8C9BB21A002520FA
:100B80003B181B781A41130001221340002B00D19F
:100B9000E1E03B181B783A6A40F209115B01D31877
:100BA0005B181B78DBB23B6101007B181B783A6A4B
:100BB00008335B01D31807331B78DBB2FB60FB689B
:100BC00004221340042B2DD108007B181B787A686F
:100BD00056215B01D3185B181B78DBB21A00022385
:100BE0001340022B14D13B181B787A6856215B0105
:100BF000D3185B181B78DAB23B181B7802218A43A2
:100C0000D0B27A6856215B01D3185B18021C1A70A7
:100C10002523FB181B783A6A08335B01D318073386
:100C200004221A70FB6801221340012B00D093E0CC
:100C30003B6901221340012B00D08DE025217B1858
:100C40001B787A6810339B00D31804331B68FB6150
:100C5000FB691B68002B00D17EE0FB691B68BB6150
:100C60007B181B787A685B01D31850331B689AB2E3
:100C700026203B189204920C1A80BB691A6A3B1812
:100C80001B88D218BB691A62BB691A6ABB695B68A8
:100C90009A4227D2FB699B883A1812889A4221D33C
:100CA000BB691A68BB691B6AD21808007B181B78DD
:100CB00011007A685B01D3184C33196001007B186E
:100CC0001B783A6A08335B01D318073305221A7080
:100CD0007B181B783A6A08335B01D318043340222F
:100CE0001A7039E0BB691A6ABB695B689A4203D320
:100CF000BB6900221A7209E0FB699B882622BA1898
:100D000012889A4202D2BB6901221A72BB699A699F
:100D1000FB691A60BB691A6ABB695A60BB69DB6808
:100D200023B1BB69DB68BA691000984725203B18DE
:100D30001B783A6A40F208115B01D3185B18052250
:100D40001A703B181B783A6A08335B01D3180733D3
:100D500005221A7000E0C04625217B181A787B18FE
:100D600001321A702523FB181B78012B00D802E7EB
:100D7000C046BD460BB090BDB0B594B000AF786032
:100D800039604F23FB1800221A707B680BB13B6857
:100D900013B9E22300F066FC0C23FB18402200216B
:100DA00018000BF0B7FC3B681A887B68110018002C
:100DB0000AF082FC0300002B01D100F036FC3B68F6
:100DC0001A884F257C197B681100180003F0D4FAAB
:100DD000030023707B191B78002B01D000F01BFC53
:100DE0004AF69323C2F200031B78312B00D1DDE1D8
:100DF00018DC042B00D1CEE007DC022B5DD000DD37
:100E000090E0012B24D000F0D0FB062B00D12BE189
:100E100000DAF5E0072B00D15BE1082B00D191E16E
:100E200000F0C3FB352B00D173E205DC332B00D17E
:100E30002EE200DDAEE2F2E1372B00D12CE300DA46
:100E4000E9E2382B00D168E3F12B00D1A6E3ACE353
:100E50004AF25C73C2F200031B681A7859780902DF
:100E60000A43997809040A43DB781B061343FBB154
:100E70004AF25C73C2F200031B681A7859780902BF
:100E80000A43997809040A43DB781B0613431D00C3
:100E90004F23FC184AF68C22C2F2000249F29063FA
:100EA000C2F2000311001800A847030023707CE37E
:100EB0004F23FB1804221A7077E34AF25C73C2F2E4
:100EC00000031B681A79597909020A4399790904C0
:100ED0000A43DB791B061343FBB14AF25C73C2F28F
:100EE00000031B681A79597909020A4399790904A0
:100EF0000A43DB791B0613431D004F23FC184AF6F7
:100F00008C22C2F2000249F29063C2F20003110087
:100F10001800A8470300237047E34F23FB1804225F
:100F20001A7042E34AF25C73C2F200031B681A7A39
:100F3000597A09020A43997A09040A43DB7A1B06A3
:100F400013431BB34AF25C73C2F200031B681A7AA4
:100F5000597A09020A43997A09040A43DB7A1B0683
:100F600013431D004AF67023C2F2000318684F2392
:100F7000FC184AF68C22C2F2000249F29063C2F2D7
:100F800000031900A847030023700EE34F23FB184A
:100F900004221A7009E34AF25C73C2F200031B6870
:100FA0001A7B597B09020A43997B09040A43DB7BBC
:100FB0001B061343FBB14AF25C73C2F200031B68C9
:100FC0001A7B597B09020A43997B09040A43DB7B9C
:100FD0001B0613431D004F23FC184AF68C22C2F255
:100FE000000249F29063C2F2000311001800A84702
:100FF00003002370D9E24F23FB1804221A70D4E2B5
:101000004AF25C73C2F200031B681A7C597C090225
:101010000A43997C09040A43DB7C1B061343F3B1A2
:101020004AF25C73C2F200031B681A7C597C090205
:101030000A43997C09040A43DB7C1B0613431A000C
:1010400049F29063C2F200031B78591E8B41DBB258
:101050004F217C181800904703002370A5E24F230E
:10106000FB1804221A70A0E24AF25C73C2F2000379
:101070001B681A7D597D09020A43997D09040A43B8
:10108000DB7D1B061343FBB14AF25C73C2F2000323
:101090001B681A7D597D09020A43997D09040A4398
:1010A000DB7D1B0613431D004F23FC184AF68C22E0
:1010B000C2F2000249F29063C2F20003110018006C
:1010C000A8470300237070E24F23FB1804221A7014
:1010D0006BE24AF25C73C2F200031B681A7E597E0F
:1010E00009020A43997E09040A43DB7E1B06134367
:1010F0001BB34AF25C73C2F200031B681A7E597E6E
:1011000009020A43997E09040A43DB7E1B06134346
:101110001D004AF67023C2F2000318684F23FC1822
:101120004AF68C22C2F2000249F29063C2F2000336
:101130001900A8470300237037E24F23FB1804224D
:101140001A7032E24AF25C73C2F200031B681A7F23
:10115000597F09020A43997F09040A43DB7F1B0672
:101160001343F3B14AF25C73C2F200031B681A7FA7
:10117000597F09020A43997F09040A43DB7F1B0652
:1011800013431A0049F29063C2F200031B78591E00
:101190008B41DBB24F217C1818009047030023706D
:1011A00003E24F23FB1804221A70FEE14AF25C733B
:1011B000C2F200031B6820229A5C2121595C0902BB
:1011C0000A432221595C09040A4323215B5C1B0664
:1011D0001343FBB14AF25C73C2F200031B68202286
:1011E0009A5C2121595C09020A432221595C0904B5
:1011F0000A4323215B5C1B0613431A004AF6702343
:10120000C2F200031B684F217C18180090470300AE
:101210002370CAE14F23FB1804221A70C5E14AF279
:101220005C73C2F200031B6824229A5C2521595C7E
:1012300009020A432621595C09040A4327215B5C01
:101240001B061343FBB14AF25C73C2F200031B6836
:1012500024229A5C2521595C09020A432621595C03
:1012600009040A4327215B5C1B0613431A004AF654
:101270007023C2F200031B684F217C1818009047AE
:101280000300237091E14F23FB1804221A708CE1B4
:101290004AF25C73C2F200031B6828229A5C29217F
:1012A000595C09020A432A21595C09040A432B218B
:1012B0005B5C1B0613433BB34AF25C73C2F2000350
:1012C0001B6828229A5C2921595C09020A432A21B9
:1012D000595C09040A432B215B5C1B0613431D0068
:1012E0004AF67023C2F2000318684F23FC184AF62E
:1012F0008C22C2F2000249F29063C2F2000319008C
:10130000A8470300237050E14F23FB1804221A70F2
:101310004BE14AF25C73C2F200031B682C229A5C18
:101320002D21595C09020A432E21595C09040A4304
:101330002F215B5C1B0613433BB34AF25C73C2F282
:1013400000031B682C229A5C2D21595C09020A4378
:101350002E21595C09040A432F215B5C1B061343B1
:101360001D004AF67023C2F2000318684F23FC18D0
:101370004AF68C22C2F2000249F29063C2F20003E4
:101380001900A847030023700FE14F23FB18042224
:101390001A700AE14AF25C73C2F200031B68302241
:1013A0009A5C3121595C09020A433221595C0904D3
:1013B0000A4333215B5C1B0613433BB34AF25C7365
:1013C000C2F200031B6830229A5C3121595C090289
:1013D0000A433221595C09040A4333215B5C1B0632
:1013E00013431D004AF67023C2F2000318684F230E
:1013F000FC184AF68C22C2F2000249F29063C2F253
:1014000000031900A84703002370CEE04F23FB1808
:1014100004221A70C9E04AF25C73C2F200031B682E
:1014200034229A5C3521595C09020A433621595C01
:1014300009040A4337215B5C1B0613433BB34AF2A2
:101440005C73C2F200031B6834229A5C3521595C3C
:1014500009020A433621595C09040A4337215B5CBF
:101460001B0613431D004AF67023C2F200031868DE
:101470004F23FC184AF68C22C2F2000249F2906314
:10148000C2F200031900A847030023708DE04F2328
:10149000FB1804221A7088E04AF25C73C2F200035F
:1014A0001B6838229A5C3921595C09020A433A21A7
:1014B000595C09040A433B215B5C1B0613433BB3A5
:1014C0004AF25C73C2F200031B6838229A5C39212D
:1014D000595C09020A433A21595C09040A433B2139
:1014E0005B5C1B0613431D004AF67023C2F2000327
:1014F00018684F23FC184AF68C22C2F2000249F207
:101500009063C2F200031900A847030023704CE067
:101510004F23FB1804221A7047E04AF25C73C2F2B0
:1015200000031B683C229A5C3D21595C09020A4376
:101530003E21595C09040A433F215B5C1B061343AF
:101540003BB34AF25C73C2F200031B683C229A5C14
:101550003D21595C09020A433E21595C09040A43B2
:101560003F215B5C1B0613431D004AF67023C2F249
:10157000000318684F23FC184AF68C22C2F20002BE
:1015800049F29063C2F200031900A84703002370D8
:101590000BE04F23FB1804221A7006E04AF68C2356
:1015A000C2F2000300221A80C0464F23FB181B78AA
:1015B000042B0FD14AF68C23C2F2000300221A80BA
:1015C00049F29063C2F2000340F6C41200211800F1
:1015D0000BF0A0F84AF69323C2F200031B78013BFC
:1015E000022B0BD84F23FC183A687968FB181B783C
:1015F000180004F0F5FE030023702AE04F23FC18C6
:101600003A687968FB181B78180004F0E9FE0300BB
:101610002370C0461DE04F23FB181A780C23FB18DB
:101620001021012009F05AFA13E07A6849F21053A8
:10163000C0F20403110018000AF098FE0C23FB18F6
:1016400003221021012009F049FA4F23FB1803223D
:101650001A704F23FB181B780BB909F0ADFF4F230D
:10166000FB181B781800BD4614B0B0BD90B591B002
:1016700000AFF8607A600B203B180A1C1A703E23FA
:10168000FB1800221A803D23FB1800221A703C230D
:10169000FB1800221A703723FB183A1812780F2112
:1016A0000A401A703B181B785BB2DBB2DB09DAB276
:1016B0003623FB181A707B683B63FB68013301D04B
:1016C000FB6823B93D23FB1883221A7012E33B6B9E
:1016D0001B7A5BB2022B04DD3D23FB1885221A70B6
:1016E00008E33723FB181B78012B04D93D23FB1893
:1016F00084221A70FEE2FB68FB62FB6A5B6ABB62D3
:101700003723FB181B78FA6A10339B00D318043375
:101710001B687B623623FB181B78DB007A6AD318C0
:101720007B627B6ADB791A000123134023B93D23D6
:10173000FB188A221A70DDE23B6B5B687A6A92883A
:10174000B3FBF2F14A439B1A3B623B6A43B1362337
:10175000FB181B7823B93D23FB1883221A70C9E2BA
:101760003B6AA3B93623FB181B7883B13B6B1B7C08
:101770001A000123134053B13B6B5B683BB13B6BD9
:101780001B7C802252421343DAB23B6B1A74FB6A11
:10179000DB7801225340DBB213B3FB6A0E33BB612B
:1017A0001623FB18012252421A80BB691B78012BB9
:1017B00004D1BB6900221A70012300E00023012B31
:1017C0000AD1FB6A9B7A5BB23C22BC18180009F074
:1017D000DAFA0300237003E03D23FB1881221A701C
:1017E0003D23FB181B785BB2002B00D082E23B6BE1
:1017F00000229A613B6B03221A723623FB181B7876
:10180000012B04D13B6B5A683B6B1A6202E03B6BC5
:1018100000221A627B6A1B68002B00D036E23B6B09
:1018200004221A723B6B0022DA617B6A3A6B1A60FF
:101830003723FB181B78002B00D08CE13623FB18D4
:101840001B78002B00D01DE1FB6A21229B5C062B3C
:1018500000D930E29A00C84BD3181B689F463B6BF7
:101860001868FB6ADB6C082219000AF017FFBB6AD4
:1018700040F2041240219954BB6A40F20712102131
:101880009954BB6A40F20912102199543B6B1B68B2
:1018900006331A781E217B181A803B6B1B681B7855
:1018A0005BB2DBB2DB09DAB21D23FB181A707B18BE
:1018B0001B8823B9FB6A2122072199540DE01D23BF
:1018C000FB181B78012B04D1FB6A212206219954B5
:1018D00003E0FB6A2122022199543B6B9A697B6ADF
:1018E0001A603B6B02221A723B6BDB68002B00D143
:1018F000E5E13B6BDB683A6B10009847DFE1FB6A80
:101900001B6D9AB23E203B189204920C1A803B6BDE
:101910001A6A3B181B88D2183B6B5B689A4208D93D
:101920003B6B5B6899B23B6B1B6A9AB23B188A1A95
:101930001A803B6B1A683B6B1B6AD018FB6ADB6C26
:1019400019003E243B191B881A000AF0A7FE3B6BC6
:101950001A6A3B191B88D2183B6B1A623B6B1A6AD6
:101960003B6B5B689A4228D33B6B00221A72FB6A7E
:10197000212208219954BB6A40F20712012199548F
:10198000BB6A40F2091201219954BB6A40F2041269
:10199000402199543B6B1A6A3B6B5A603B6B9A69C6
:1019A0007B6A1A603B6BDB68002B00D189E13B6BE3
:1019B000DB683A6B1000984783E17B6A9B883E2284
:1019C000BA1812889A4228D23B6B01221A72FB6A1B
:1019D000212208219954BB6A40F20712012199542F
:1019E000BB6A40F2091201219954BB6A40F2041209
:1019F000402199543B6B1A6A3B6B5A603B6B9A6966
:101A00007B6A1A603B6BDB68002B00D159E13B6BB2
:101A1000DB683A6B1000984753E1BB6A40F207124B
:101A200001219954BB6A40F2091201219954BB6A01
:101A300040F204124021995443E1FB6A2122002123
:101A400099543B6B00221A72BB6A40F207120121C3
:101A50009954BB6A40F2091201219954BB6A40F2C1
:101A60000412402199543B6B9A697B6A1A603B6B64
:101A7000DB68002B00D126E13B6BDB683A6B100082
:101A8000984720E1FB6A21229B5C062B02D0072BA2
:101A900047D019E13B6B1B6A7A6A9288934205D260
:101AA0003B6B1A6A3E23FB181A8004E03E23FB18A6
:101AB0007A6A92881A80FB6ADB6D18003B6B1968A2
:101AC0003E243B191B881A000AF0E8FD3B6B1A6A9A
:101AD00020003B181B88D21A3B6B1A62FB6A21223A
:101AE00009219954FB6A1B6E9B0B9A03FB6A1A66C9
:101AF000FB6A1A6E3B181B889B049B0C1A43FB6AFB
:101B00001A66BB6A40F2071202219954BB6A40F27E
:101B1000091202219954BB6A40F20512802199549E
:101B2000D2E0FB6A212208219954FB6A1B6E9B0BB1
:101B30009A03FB6A1A66BB6A40F2071202219954A3
:101B4000BB6A40F2091202219954BB6A40F20512A5
:101B500080219954B8E03623FB181B78012B6BD1F8
:101B60003B6B1B6A7A6A9288934207D83B6B1A6A6E
:101B70003E23FB181A8006E0A8C304003E23FB188E
:101B80007A6A92881A803B6B1A683B6B59683B6B88
:101B90001B6ACB1AD21837203B181B781100FA6A3F
:101BA0005B01D3185C3319603B6B1A6A3E243B1906
:101BB0001B88D21A3B6B1A623B181B78FA6A5B01CE
:101BC000D31860331A683B181B78920B9203F96A9A
:101BD0005B01CB1860331A603B181B78FA6A5B0113
:101BE000D318603319683B191B889B049A0C3B1867
:101BF0001B780A43F96A5B01CB1860331A603B1803
:101C00001B78BA6A08335B01D31807330A221A70AB
:101C10003B181B78BA6A40F209115B01D3185B18B4
:101C20000A221A703B181B78BA6A08335B01D31872
:101C3000053380221A7047E03B6B1A6837203B1847
:101C40001B781100FA6A5B01D3184C33196001004C
:101C50007B181B78BA6A08335B01D3180733052257
:101C60001A7008007B181B78BA6A40F209115B01F0
:101C7000D3185B1805221A703B181B78BA6A083310
:101C80005B01D318043340221A701DE07B6A1B6885
:101C9000BB6302E0BB6B9B69BB63BB6B9B69002BA7
:101CA000F8D1BB6B3A6B9A613B6BBA6BDA613B6BF9
:101CB00003221A7208E0C04606E0C04604E0C046AF
:101CC00002E0C04600E0C046FB6ADB7801225340D8
:101CD000DBB27BB13C23FB181B782BB1FB6A9B7AF0
:101CE0005BB2180009F084FBFB6A0E333B613B6971
:101CF00001221A703D23FB181B785BB21800BD4609
:101D000011B090BDF0B58BB0040000910192242970
:101D100001D8012903D11622BA4B1A6053E0E36BB4
:101D2000E26C934222D25A1CE2631D78202DF6D039
:101D30002B00093B042BF2D90222223B93430022C1
:101D400008925BB92D3D6B425D416B420893E26C9A
:101D5000E36B93420FD25A1CE2631D78009BE26C46
:101D600073B1102B55D1302D0CD052E0200007F06C
:101D700064F90500DAE7200007F05FF90500EDE7F8
:101D8000302D44D1E36B934223D25A1CE2631D7879
:101D900020232B43782B2ED1E36BE26C93421DD290
:101DA0005A1CE2631D781022974B00925B5D0F2B4B
:101DB00000D8C9E0E36C002B00D1B0E1019AE36BDD
:101DC0008AB1023BE36300260027300039000BB0E4
:101DD000F0BD200007F031F90500D9E7200007F039
:101DE0002CF90500DFE7013BE3630022002320001C
:101DF0000AF0A4F9E7E7009B002B00D1A2E0009BCA
:101E00000A2B00D0A0E00023009F01931BE00A23CF
:101E100000937D4B00995B5D8B42F0D312B1E36B75
:101E2000013BE3630022002320000AF087F972E7F8
:101E3000019EE36B7E437519303D019593426BD251
:101E40005A1CE2631D782B00303BE26C092B03D84F
:101E50006E4B01999942EBD90027019E2B00303B34
:101E60000193E36C0493019B092B33D8684B9F4289
:101E700013D802D1674B9E420FD800230A223000AC
:101E8000390009F093FA019B029300230393029B0C
:101E9000DB434A1C45D1984243D95B4B009A5B5DBA
:101EA000934217D2E36BE26C934200D31CE15A1CBD
:101EB000E2631878544B009A1B5C9342F2D3109E55
:101EC000119F22224F4B1A600123109A134201D016
:101ED00000230893E36C13B1E36B013BE363119BB5
:101EE000BB4200D911E103D1109BB34200D90CE1F0
:101EF0000123109A134200D0FAE0089B002B00D077
:101F0000F6E0222201267642F7173E4B1A60109B1C
:101F1000119CF618674158E7200007F08EF805007D
:101F200091E7E36B049A029E039F36184F41934258
:101F300003D25A1CE2631D7890E7200007F07DF879
:101F400005008BE708230093009B5E1E334001933E
:101F5000002B00D0C0E0009A173353432E4A1B06D3
:101F60005B0FD35C0293284B009A5B5DE16C9A4255
:101F700003D92A4A019890422DD9029A0120404261
:101F8000C1170AF0AFFA0027019E099004911E4B79
:101F90005B5D0193E36C019A0693009B934200D82A
:101FA0007BE7049B9F4200D977E703D1099B9E42C0
:101FB00000D972E7029A300039000AF09FFA019BBB
:101FC000069A03431E00E36B0F00934214D25A1C7F
:101FD000E2631D78DBE7019E029A96401E43E36BA5
:101FE00001968B4203D25A1CE2631D78BBE72000A6
:101FF00007F023F80500B6E7200007F01EF80500FB
:10200000C5E7C04684AA0020C670040098999919B3
:102010009999991999999999BC700400FFFFFF0744
:10202000019E009A5643F3180193E36B8B424ED204
:102030005A1CE2631D783D4B009A5B5DE16C9A424D
:1020400003D93B4A01989042EAD90027019E374BB9
:102050005B5D0193E36C019A0293009B934200D86D
:102060001BE7BFB11A0000233000190009F09EF9E8
:10207000002309913A001900009809F097F9099B8B
:10208000069300230793069A079B8018594100295D
:1020900000D002E73B0032000098002109F086F9E9
:1020A000019B049300230593049BDB434A1C02D14C
:1020B000984200D9F1E6049E059FE36B029A361818
:1020C0004F4193420BD25A1CE2631D78BFE72000B8
:1020D00006F0B3FF0500AEE700230193ABE7200055
:1020E00006F0ABFF0500B2E7200006F0A6FFE1E630
:1020F000119B9F4203D808D1109B9E4205D9109E88
:10210000119F22220B4B1A605FE6089B013300D01F
:102110005BE633003C0000275E42A74155E6019B89
:1021200000260027002B00D04FE65EE6C6700400B4
:10213000C6711C0784AA002028AA00201C000000E9
:1021400000000000008000201001000000000000DE
:10215000B0A80020500000000100000035AB0400D2
:10216000CDBB0400B9B90400EFB90400FFBB040003
:10217000F9B404009BB20400AD78040031280400D7
:10218000B53104006F530400A74504009B99040077
:102190008B9804006D16040075660400076A04003D
:1021A000D3C60400E3C60400000000001081002034
:1021B000A000000000000000DCA900202C000000AE
:1021C0000000000070A60020EC00000000000000ED
:1021D00090AA00200100000000000000B081002053
:1021E00072000000000000002482002008000000AF
:1021F000000000005CA400200400000000000000BB
:1022000091AA0020010000000000000092AA002016
:1022100001000000000000009CA900204000000018
:10222000000000005CA70020040000000000000087
:1022300093AA00200100000001000000FF00000040
:1022400090960020C4090000000000008CAA002025
:10225000020000000000000070AA0020040000003E
:102260000000000094AA002001000000000000000F
:1022700095AA0020010000000000000044AA0020F0
:10228000140000000100000094940400A0940400D5
:10229000A8940400B0940400B09404002C820020A0
:1022A000C40900000000000050A900204C000000FC
:1022B0000000000096AA00200100000000000000BD
:1022C00097AA002001000000000000008EAA002054
:1022D0000200000000000000F08B0020C809000090
:1022E00000000000D8A700207000000000000000DF
:1022F00058AA002010000000010000003CA70400C4
:1023000044A704004CA7040054A70400B89500207B
:102310002400000000000000DC95002014000000F4
:102320000000000074AA002004000000000000006B
:1023300078AA00200400000000000000F0950020B2
:10234000A0000000000000007CAA002004000000A3
:102350000000000000A90020500000000000000064
:1023600060A40020100200000000000060A7002010
:10237000780000000100000070A7002068A700207E
:1023800070A70020000000000000000025000000F1
:102390005CA000200004000000000000000000001D
:1023A000000000000000000000000000000000002D
:1023B0000000000000000000B5C90400000000009B
:1023C0000000000000000000000000001BA6040048
:1023D00000000000000000000000000000000000FD
:1023E00000000000000000000000000000000000ED
:1023F00054A00020080400000000000008AA0020EB
:1024000020000000010000000100000003000000A7
:1024100000000000000000000000000000000000BC
:102420000000000068AA002068AA00200800000040
:102430000000000080AA002004000000000000004E
:1024400084AA0020040000000000000048A800202A
:10245000680000000100000001000000030000000F
:10246000000000000000000000000000000000006C
:10247000000000005DA80400000000000000000053
:1024800000000000B7C804003F5504000000000031
:10249000000000000000000000000000000000003C
:1024A000000000000000000000000000000000002C
:1024B000000000000000000000000000000000001C
:1024C00088AA0020040000000000000000000000B6
:1024D0000000000022222222B0B500AF40F6000327
:1024E000C4F200239B7DDBB2002B00D19DE140F6BE
:1024F0000003C4F200235B8B9BB21A00022313403B
:10250000022B0ED14AF6DC13C2F200032022FF2177
:1025100099544AF6DC13C2F2000321220221995495
:1025200008E140F60003C4F200235B8B9BB21A0063
:1025300001231340012B0ED14AF6DC13C2F2000333
:102540002022FF2199544AF6DC13C2F20003212213
:1025500002219954EEE040F60003C4F200235B8BA5
:102560009BB21A0004231340042B0ED14AF6DC134D
:10257000C2F200032022FF2199544AF6DC13C2F272
:102580000003212201219954D4E04AF6DC13C2F25F
:10259000000320229B5C5BB2022B0AD003DC002BE1
:1025A00000D1C6E0C6E0032B00D180E0042B1AD096
:1025B000C0E04AF6DC13C2F200031B694BB14AF6D5
:1025C000DC13C2F200039B880021180007F02EFBE9
:1025D000B0E04AF6DC13C2F200039B880121180028
:1025E00007F024FBA6E04AF6DC13C2F200039A6966
:1025F0004AF6DC13C2F200031B699A423FD14AF645
:10260000DC13C2F200035B69E3B14AF6DC13C2F2E9
:1026100000039B885B0001221A4340F60003C4F2CA
:1026200000235A62C04640F60003C4F20023DB696F
:10263000002BF8D14AF6DC13C2F20003202203215A
:10264000995477E040F60003C4F200235A6840F63C
:102650000003C4F20023C02189020A435A60C04625
:1026600040F60003C4F20023DB69002BF8D14AF6E0
:10267000DC13C2F200032022062199545AE04AF6E4
:10268000DC13C2F2000399684AF6DC13C2F20003BD
:102690009A69501C4AF6DC13C2F2000398618B1849
:1026A0001A7840F60003C4F200239A6242E04AF628
:1026B000DC13C2F20003DA694AF6DC13C2F200034B
:1026C0005B69013B9A421BD140F60003C4F2002330
:1026D0005A6840F60003C4F20023E021C9020A430D
:1026E0005A60C04640F60003C4F20023DB69002BA9
:1026F000F8D14AF6DC13C2F20003202206219954D5
:1027000040F60003C4F200239C6A4AF6DC13C2F2CE
:102710000003D9684AF6DC13C2F20003DA69501CE0
:102720004AF6DC13C2F20003D8618B18E2B21A70C9
:1027300000E0C0464AF6DC13C2F2000320229B5C94
:102740005BB2013335D14AF6DC13C2F2000320221A
:102750000021995440F60003C4F200235A6840F661
:102760000003C4F20023C02189020A435A60C04614
:1027700040F60003C4F20023DB69002BF8D140F6D9
:102780000003C4F200239B221A764AF6DC13C2F23D
:1027900000035B6A002B48D04AF6DC13C2F2000348
:1027A0005A6A4AF6DC13C2F200039B6A180090478B
:1027B0003BE04AF6DC13C2F2000320229B5C5BB2D2
:1027C000062B32D14AF6DC13C2F20003202200218C
:1027D00099544AF6DC13C2F20003212200219954D5
:1027E00040F60003C4F200239B221A76C04640F64E
:1027F0000003C4F200235B8B9BB21A00302313400A
:10280000102BF4D14AF6DC13C2F200035B6A63B109
:102810004AF6DC13C2F200035A6A4AF6DC13C2F22B
:1028200000039B6A18009047C046C046BD46B0BD35
:10283000B0B588B000AF78600C0010001900FB1C28
:10284000221C1A70BB1C021C1A703B000A1C1A8046
:102850001E23FB1808221A801D23FB1800221A7061
:102860001C203B1800221A701B243B19FA1C1278FA
:102870000F210A401A70FB1C1B785BB2DBB2DB092C
:10288000DAB21A23FB181A703B191B78012B03D9F3
:102890003B1884221A7068E13B001B88072B05D97E
:1028A0003B001B8840F20042934204D91C23FB18D2
:1028B00084221A7059E17B68013304D11C23FB1870
:1028C00083221A7051E17B687B617B695B6A3B61A3
:1028D0003B001B889BB10BE01D217B181A787B18ED
:1028E00001321A701E23FA18FB181B88DB1813809C
:1028F0001E23FA183B0012881B889A42ECD31B2334
:10290000FB181B787A6910339B00D31804331B68BB
:10291000FB60BB1C1B78002B5BD13B001988FB685C
:102920000022180008F0DBFCFB680833FB603B006A
:102930001988FB680022180008F0D1FC3B6940F2BE
:102940000012002199543B6940F200121121995460
:102950007B691B6D894A1A407B691A657B691B6E0E
:10296000864A1A407B691A667B691A6D1D203B18DE
:102970001B781B071900E023DB050B401A437B691A
:102980001A657B691A6E3B181B781B071900E02338
:10299000DB050B401A437B691A667B691B691A00C9
:1029A0007B69DA647B695B691A007B69DA657B693C
:1029B0001B6D5B005A087B691A657B691B6E5B00A7
:1029C0005A087B691A663B6940F20912132199542F
:1029D000CBE01A243B191B78DB00FA68D318FB60A4
:1029E000BB1C1A783B001988FB68180008F077FCBC
:1029F0003B191B78012B33D11B203B181A783B69FC
:102A000008325201D35CDBB23A18127870218B4342
:102A1000D9B23B6908325201D1543B181A783B694C
:102A200008325201D35CD9B2BB1C1A784CF6C003F1
:102A3000C0F2040352009B1801331B783A18127835
:102A40000B43D9B23B6908325201D1543B181B7871
:102A50003A6908335B01D318043380221A7030E0DE
:102A60001B203B181A783B6908325201D35CDBB259
:102A70003A18127807218B43D9B23B6908325201C8
:102A8000D1543B181A783B6908325201D35CD9B251
:102A9000BB1C1A784CF6C003C0F204035200D35C8E
:102AA0003A1812780B43D9B23B6908325201D1541B
:102AB0003B181B783A6908335B01D3180533402271
:102AC0001A701B243B1919781A257B191B787A690F
:102AD0004900CB181B01D31850331A683B191878DA
:102AE0007B191B7825490A4079694000C3181B01EE
:102AF000CB1850331A6020003B1819787B191B78CB
:102B00007A694900CB181B01D318503319681D236B
:102B1000FB181B781B071A00E023DB051A40040092
:102B20003B1818787B191B780A4379694000C31851
:102B30001B01CB1850331A6020003B1819787B1901
:102B40001B787A694900CB181B01D31850331A68D7
:102B50003B1818787B191B7852005208796940009D
:102B6000C3181B01CB1850331A601C23FB181B78A9
:102B70005BB21800BD4608B0B0BDC046FFFFFF8F76
:102B8000F0B585B000930393009B02900C001600F3
:102B9000150001900F00002B00D0C9E08A424AD9ED
:102BA000100008F041FE48B12023019F1B1ADF40AE
:102BB000019B84408340854027430193AAB22B0C9C
:102BC000B7FBF3F1160094461A004A434E43BF1A6E
:102BD000019A3F04140C27430A00BE4207D97F190B
:102BE000013ABD4203D8BE4201D98A1E7F19BE1BDD
:102BF000B6FBF3F14B436446F61A6B464C439B8895
:102C000036041E430F00B44207D97619013FB5427E
:102C100003D8B44201D98F1E76191204341B3A43EB
:102C20000A9B23B1C4401C6000230A994B6010002A
:102C3000009905B0F0BD02B9FFDE100008F0F4FD08
:102C4000B8BB0123A41B00932B0CB4FBF3F21F00B1
:102C500011005743AEB27143E41B019F24043F0CA3
:102C60003C439446A1420AD9012764197F42BC44DF
:102C7000A54204D8A14202D9023A94466419641AC2
:102C8000B4FBF3F77B43E41A6B467E439B88240432
:102C90001C433900A64207D964190139A54203D85B
:102CA000A64201D9B91E641963461A04A41B0A433B
:102CB000B6E7202223000199121AD3408440D14064
:102CC000019A8540824021438C46290CB3FBF1F4E4
:102CD00001920A00624326009B1A6246AFB27E430D
:102CE000120C1B04134322009E4207D95B19013AC0
:102CF0009D4203D89E4201D9A21E5B199B1BB3FBC8
:102D0000F1F671435B1A614677438CB21B041C4396
:102D10003100A74207D964190139A54203D8A74257
:102D200001D9B11E641912040A43E41B00928BE717
:102D3000009B8B420AD90A9B002B00D1ABE0029A80
:102D400059601A60002300931A0070E7039808F096
:102D50006BFDD8B9039BA34203D3029B02009E42A2
:102D60000AD8029B01229E1B039B0196E41A029B38
:102D7000B342AD416D42671B0A9B0093002B00D10B
:102D800055E7019982C30023009350E720231B1AC3
:102D900001933300019A039FD34087401F432300D0
:102DA0000199D340029A8440CA4022439446029A31
:102DB000390C8240B3FBF1F402920A008640624370
:102DC000009626009B1A6246BDB26E43120C1B048D
:102DD000134322009E4207D9DB19013A9F4203D8D0
:102DE0009E4201D9A21EDB199E1BB6FBF1F463467D
:102DF00061436543761A360499B20E432300B54207
:102E000007D9F619013BB74203D8B54201D9A31E31
:102E1000F61912041A436B461C88009B711B8C46E2
:102E2000190C230096B2150C6C4373434D43714348
:102E30001E0C091971188C4202D9802464022D19C4
:102E40000C0C9BB209046519C918AC4503D30BD10E
:102E5000029B8B4208D2009B013ACE1AB1428941B3
:102E60004942CF193100ED1B0A9B0093002B00D182
:102E7000DDE6029B019C591A63465D1B029B8B4257
:102E80009B415B42ED1A2B00C140A340C540194352
:102E90000A9B22C377E70A9B55E7FEE70023F0B5BC
:102EA00006001500AFB00591019305990B78002B32
:102EB00000D10CE101235B420A930EAB00240C937A
:102EC000802309940B940D930B5D0BB1252B29D115
:102ED00034B12200300008F053FD059B1B19059307
:102EE000059B1A78252A00D0E6E040F2020C10215A
:102EF0000827013302930593059803782B2B1BD0E9
:102F000025D8202B1BD0232B1DD02A2B2AD008F00C
:102F100011FC0B90059B1A78303A092A33D80133FB
:102F20000593F7E70134CFE70122099B801803934B
:102F3000134309930590DFE70423099A0EE0099BE8
:102F400003933B430BE0099B03930B4307E02D2BBB
:102F5000EAD0302BD9D16246099B039313430993DE
:102F60000130E7E72B6801301A1D1B6805902A60C5
:102F70000B93002B07DA099A5B4203920122039913
:102F80000B934A400992099BDA0702D50222934328
:102F90000993059B1A782E2A0ED10022581C0A92FA
:102FA00005905A782A2A28D1023305932B681A1DD6
:102FB0001B682A6003930A9305A808F0C5FC059BCB
:102FC0000700187809F0BDFB692800D182E035DCE4
:102FD000632800D1D2E01BDC252800D1DBE061288A
:102FE00059D0252306AA1370029B05930023099349
:102FF0000B93013B0A930233AEE008F09BFB0A906F
:10300000059B1A78303A092AD6D801330593F7E799
:1030100064285FD06728E4DC2A00390006A808F09D
:10302000D5FF002800D1A5E0059B09A95A1C0592EF
:103030001B7806AA300009F0CFFC3CE0702800D1D4
:103040007AE016DC6E2800D18DE06F28C9D12B0004
:103050000022390006A806F039F9002800D189E0DD
:10306000059B06AA013309A93000059307F097F9DB
:1030700021E075283FD078284DD07328B1D1802F1A
:1030800000D077E0059B2A6801330593131D2B6060
:103090001268002360E02A00390006A808F096FFB5
:1030A000002867D0059B09A95A1C05921B7806AA1F
:1030B000300009F091FC2418019B1C19A34200DC8C
:1030C00071E04F22394B1A6001235B420193019852
:1030D0002FB0F0BD2B000122390006A806F0F6F84B
:1030E000002847D0059B06AA013309A930000593A3
:1030F00005F0A2FEDFE72B000022390006A806F04B
:10310000E5F8B8B3059B06AA013309A93000059379
:1031100007F091FDCFE72B000022390006A806F04A
:10312000D5F838B3059B5A1C05921B7806AA09A945
:10313000300003F0D2FBBEE72B000022F02106A8EE
:1031400006F0C4F8B0B1059B079A01330593069BBE
:10315000134333B9164A163209A9300007F076FF37
:10316000A9E77823E2E7019B39001A1906A82B008A
:1031700007F0EDF9059B013305939DE7802FF9D109
:10318000059B013305932B681A1D1B682A6006AA4C
:1031900013700123E0E7802FECD1059B06AA0133D1
:1031A00005931070F5E701947FE6C04684AA0020DD
:1031B00018C4040090B58BB000AF78600A00FB1C07
:1031C0001A7026203B1800221A702523FB180022B3
:1031D0001A7024243B19FA1C12780F210A401A7025
:1031E000FB1C1B785BB2DBB2DB09DAB22323FB18D2
:1031F0001A703B191B78012B07D9FB1C1B78102B6D
:1032000003D03B1884221A7035E17B68013304D166
:103210002623FB1883221A702DE17B68FB61FB6972
:103220005B6ABB61FB69DB7801225340DBB213B3FD
:10323000FB690E333B610E23FB18012252421A80B8
:103240003B691B78012B04D13B6900221A700123D2
:1032500000E00023012B0AD1FB699B7A5BB2252297
:10326000BC18180007F08FFD0300237003E026232D
:10327000FB1881221A702623FB181B785BB2002BE7
:1032800000D0F8E0FB1C1B78102B4FD1BB6940F23B
:10329000081210219954BB6940F207121021995469
:1032A0002723FB1800221A703AE027203B181A78CF
:1032B000BB69083252010021D1543B181B78BA690E
:1032C00040F208115B01D3185B187F221A700100CD
:1032D0007B181B78BA6908335B01D31807337F2248
:1032E0001A707B181B78FA6910339B00D3180433CB
:1032F0001B687B617B69DB7901229343DAB27B69CE
:10330000DA717B6908337B617B69DB790122934346
:10331000DAB27B69DA717B181A787B1801321A707D
:103320002723FB181B78012BBFD98EE02423FB1821
:103330001B781BBBBB6940F208127F219954BB6903
:1033400040F207127F219954BB6940F2001200211C
:103350009954FB695B6C7B617B69DB790122934348
:10336000DAB27B69DA717B6908337B617B69DB796F
:1033700001229343DAB27B69DA7166E02323FB18FA
:103380001B782BBB24203B181A78BB6908325201EA
:10339000D35CDBB23A18127807218B43D9B2BB69F0
:1033A00008325201D15401007B181B78BA690833E6
:1033B0005B01D318073305221A707B181B78BA6992
:1033C00040F208115B01D3185B1805221A7024E043
:1033D00024203B181A78BB6908325201D35CDBB257
:1033E0003A18127870218B43D9B2BB690832520166
:1033F000D15401007B181B78BA6908335B01D318DC
:1034000007330A221A707B181B78BA6940F2081138
:103410005B01D3185B180A221A702423FB181B784F
:10342000FA6910339B00D31804331B687B61232394
:10343000FB181B78DB007A69D3187B617B69DB7929
:1034400001229343DAB27B69DA71FB69DB780122EE
:103450005340DBB27BB12523FB181B782BB1FB69F2
:103460009B7A5BB2180007F0C3FFFB690E33BB60A9
:10347000BB6801221A702623FB181B785BB2180068
:10348000BD460BB090BD704790B589B000AF3A60B3
:10349000BB1D021C1A807B1D0A1C1A70BB1D1A88DA
:1034A00013009B009B18DB0048F2B012C2F200022E
:1034B0009B18BB617B1D1B780E2B00D02DE1BB69D7
:1034C00000221A753B681B781F221340DBB2012BC8
:1034D00000D07EE03B681B7860221340DBB2002BFB
:1034E00000D076E03B685B780A2B5FD00B2B4FD087
:1034F000062B66D13B68DB78212B20D13B689A797B
:10350000DB791B0213439BB21A00BB699B681B68E3
:103510009A4204D3BB699B681B68FB6106E03B6869
:103520009A79DB791B0213439BB2FB61BB69586834
:10353000BB695B6AFA69190006F0B6FB24E03B68D8
:10354000DB78222B20D13B689A79DB791B0213436D
:103550009BB21A00BB699B681B689A4204D3BB6983
:103560009B681B68FB6106E03B689A79DB791B026C
:1035700013439BB2FB61BB695868BB699B685B687E
:10358000FA69190006F090FBBB6901221A751FE069
:103590003B689A784AF69023C2F200031A70BB691E
:1035A0005B680021180006F02EFD11E0BB69586829
:1035B0004AF69023C2F200030122190006F074FBC0
:1035C00006E0BB695B680121180006F01CFDC046DF
:1035D000B8E03B681B7860221340DBB2202B00D0A0
:1035E00094E03B681B781F221340DBB2012B00D014
:1035F0008CE0BB69DB68002B00D187E03B685B781F
:103600000B2B00D97AE09A00504BD3181B689F46C9
:103610003B68DA7810217B181A703B689A787B181F
:103620005A703B689A79DB791B0213439AB27B1874
:103630005A80BB69DC68BB1D1888BB691B697A1896
:103640000021A04761E03B689A7817217B181A7027
:10365000BB69DC68BB1D1888BB691B697A1801212E
:10366000A04752E0BB69DC68BB1D1888BB691B69B9
:1036700000220221A04748E03B68DA780C217B1841
:103680001A703B689A787B185A703B689A79DB7994
:103690001B0213439AB27B185A80BB69DC68BB1DBE
:1036A0001888BB691B697A180321A0472DE03B6885
:1036B0009A78DB781B0213439BB2DAB216217B188F
:1036C0001A70BB69DC68BB1D1888BB691B697A1856
:1036D0000521A04719E03B68DA7814217B181A709D
:1036E0003B689A787B185A70BB69DC68BB1D1888E8
:1036F000BB691B697A180421A04706E0BB695B68B7
:103700000121180006F07FFCC0461BE0BB695B6826
:103710000121180006F077FC14E0BB691B7D012233
:103720005340DBB273B1BB69DB685BB1BB69DC687A
:10373000BB1D1888BB691A697B1D1978130000220C
:10374000A047FFE7C046BD4609B090BDC8BC040015
:1037500080B586B000AF78600A00BB1C1A801723C2
:10376000FB1800221A7000233B610023FB607B687A
:103770002821180008F06CFF03003B613B6933B956
:103780007B683A21180008F063FF03003B613B6946
:10379000002B00D111E13A697B68D31A1A007B68CB
:1037A0001900100007F010FD4AF69323C2F200033F
:1037B0001B78002B47D17B681B78613B152B3BD8CE
:1037C0009A00834BD3181B689F464AF69323C2F294
:1037D000000301221A70A3E04AF69323C2F2000309
:1037E00002221A709CE07B6801331B78692B06D19A
:1037F0004AF69323C2F2000305221A7006E04AF645
:103800009323C2F2000303221A70C04688E04AF6EE
:103810009323C2F2000304221A7081E04AF6932334
:10382000C2F2000306221A707AE04AF69323C2F22B
:10383000000307221A7073E04AF69323C2F20003D2
:10384000FF221A706CE04AF69323C2F200031B7841
:10385000302B64D17B681B78693B0E2B58D89A00BB
:103860005C4BD3181B689F464AF69323C2F20003B1
:10387000F0221A7054E04AF69323C2F20003312278
:103880001A704DE07B6801331B78652B06D14AF630
:103890009323C2F2000334221A7006E04AF69323FF
:1038A000C2F2000332221A70C04639E07B6801334D
:1038B0001B78722B08D0772B0DD14AF69323C2F2D6
:1038C000000337221A700DE04AF69323C2F2000378
:1038D00038221A7006E04AF69323C2F20003FF2250
:1038E0001A70C0461CE04AF69323C2F2000333224A
:1038F0001A7015E04AF69323C2F2000335221A70BB
:103900000EE04AF69323C2F2000336221A7007E053
:103910004AF69323C2F20003FF221A7000E0C04669
:103920004AF69323C2F200031B78F02B39D04AF6F3
:103930009323C2F200031B78FF2B32D03B69013383
:103940002921180008F084FE0300FB60FB681BB30C
:1039500049F29063C2F2000340F6C412002118003D
:1039600008F0D8FE3B690133FA68D31A9AB24AF6D6
:103970008C23C2F200031A803B69591C4AF68C233F
:10398000C2F200031B881A0049F29063C2F20003DE
:10399000180008F07BFF14E01723FB1803221A70AD
:1039A0000FE04AF69323C2F200031B78FF2B08D1E5
:1039B0001723FB1803221A7003E01723FB180322B6
:1039C0001A701723FB181B781800BD4606B080BD7F
:1039D000289504008095040080B58AB000AF0200ED
:1039E0003960BB1D1A800023BB6100237B6101236A
:1039F0005B427B62BB1D1B88002B00D025E1BB1DF9
:103A0000198848F20002C2F200020B001B015B1889
:103A10001B019B5C002B00D017E13B687B61BB1D49
:103A20001A8813001B019B181B0148F20002C2F206
:103A300000029B18BB61BB690E333B613B690122ED
:103A40001A700123012B00D0FFE0BB6901221A701C
:103A5000BB692022012199547B695A68BB695A626B
:103A60007B69DA7BBB695A72BB6900225A70BB69F9
:103A700000229A63BB6900221A717B699A7ABB693A
:103A80009A727B69DA7ABB69DA727B691A7BBB69E5
:103A90001A737B695A7BBB695A73BB690022DA705F
:103AA000BB695B6A01221A70C046BB695B6A9B787E
:103AB000DBB21A0001231340002BF6D1BB695B6A0D
:103AC0000A22DA7046F21C03C0F280031B685B0B0B
:103AD000FB60FB689AB21E203B181F210A401A8027
:103AE0003B181B881F2B02D13B1805221A80BB698B
:103AF0005B6A1B8D99B21E203B181B889B019BB2F1
:103B000040F2C07213409AB2BB695B6A0A4392B238
:103B10001A85FB685B099AB23B181F210A401A807C
:103B20003B181B881F2B02D13B181D221A80BB6932
:103B30005B6A1B8D99B21E203B181B881F22134005
:103B40009AB2BB695B6A0A4392B21A85FB689B0A08
:103B50009AB23B1807210A401A803B181B88072B92
:103B600002D13B1803221A80BB695B6A1B8D99B294
:103B70001E23FB181B881B039BB247F20002134055
:103B80009AB2BB695B6A0A4392B21A857B691B7A57
:103B90004BB1BB695B6A1B78DAB2BB695B6A042113
:103BA0000A43D2B21A70BB695B7A022B32D0BB696E
:103BB0005B7A012B2ED1BB694C331A00BB695B6A5F
:103BC0005A62BB693C22002199547B691A6ABB691D
:103BD0001A64BB695B6A1B899BB23B623B6A0C221D
:103BE00093433B627B699B7B022B07D07B699B7B6A
:103BF000032B03D13B6A042213433B62BB695B6A1C
:103C00003A6A92B21A81BB1D1A88BB69110018006A
:103C100005F006FFBB695B6A1B78DAB2BB695B6AB9
:103C200002210A43D2B21A70C046BB695B6A9B7814
:103C3000DBB21A0002231340022BF6D0BB6920220C
:103C400002219954BB1D1B887B627B6A1800BD460C
:103C50000AB080BD80B582B000AF49F23063C2F2D5
:103C600000031B78012B2ED001DC33B128E1022B9D
:103C70004ED0032B00D11EE122E10321002005F0EC
:103C800053FF020049F23063C2F200035A6049F266
:103C90003063C2F200035B68013300D10DE149F2E9
:103CA0003063C2F20003586849F22923C0F20403CA
:103CB0000022190007F0B8F849F23063C2F200039D
:103CC00001221A70F9E049F23063C2F200031B7C52
:103CD000002B00D1F3E049F23063C2F2000300226E
:103CE0005A7749F23063C2F2000301229A7749F20F
:103CF0003063C2F2000302221A7049F23063C2F24A
:103D000000039A6870494023002001F0FDFCD6E0D2
:103D100049F23063C2F200031B7C01225340DBB244
:103D200033B149F23063C2F2000301221A70C2E0DB
:103D300049F23063C2F200035B7F6BB149F250631A
:103D4000C2F20003180005F00FFB49F23063C2F223
:103D5000000300225A77AEE049F23063C2F200035A
:103D60009B7F002B00D1A6E04AF69723C2F2000306
:103D70001B78002B00D19EE04AF68E23C2F200038E
:103D80001B881A1C93B2402B01D940231A1C93B2F2
:103D90001A004AF67423C2F200031A6049F2306333
:103DA000C2F2000300229A7749F23063C2F20003A4
:103DB000DB6840220021180008F0ACFC49F23063B7
:103DC000C2F20003D8684AF67823C2F200031A68E8
:103DD00048F6F433C2F20003D1184AF67423C2F253
:103DE00000031B681A0008F01EFA49F23063C2F2A1
:103DF0000003DA6835494023002001F0A1FB0300ED
:103E00001A00FB1D1A70FB1D1B78002B53D14AF6BC
:103E10007823C2F200031A684AF67423C2F2000340
:103E20001B68D2184AF67823C2F200031A604AF6D9
:103E30008E23C2F200031A884AF67423C2F20003EA
:103E40001B689BB2D31A9AB24AF68E23C2F20003C1
:103E50001A804AF68E23C2F200031B885BBB4AF627
:103E60009723C2F2000300221A7048F6F433C2F21C
:103E7000000340F6C4120021180008F04BFC4AF67B
:103E80007823C2F2000300221A604AF67423C2F2B9
:103E9000000300221A6049F23063C2F200030022DC
:103EA0005A7749F23063C2F200039A680649402308
:103EB000002001F029FCC04602E0C04600E0C046F8
:103EC000C046BD4602B080BD489600204496002002
:103ED000B0B584B000AF0E257B1900221A70FB1C10
:103EE00000221A704AF2D873C2F200037022002135
:103EF000180008F00FFC022003F0E6FB49F2B8536B
:103F0000C2F200031B68984749F2B853C2F200039B
:103F10009C687B191A781300DB009B1A5B004AF23D
:103F2000D872C2F200029B18FA1C11001800A047B8
:103F3000FB1C19787B197A1912788A181A70FB1CE5
:103F400000221A700F23FB1800221A70E0E00F20E5
:103F50003B1819784AF2D872C2F200020B00DB005B
:103F60005B1A5B00D31801331B78002B00D1C8E02B
:103F70003B1819784AF2D872C2F200020B00DB003B
:103F80005B1A5B009B5C022B38D002DC012B5FD0FC
:103F9000B8E0032B03D0042B00D188E0B2E00F245B
:103FA0003B1919784AF2D872C2F200020B00DB000A
:103FB0005B1A5B00D31801331B78180006F05CFA1B
:103FC0000300BB603B1919784AF2D872C2F20002B2
:103FD0000B00DB005B1A5B00D3180D331B78180055
:103FE00007F00AFB03007B607A68B9684AF26073E5
:103FF000C0F20403180008F0B9F983E00F243B195C
:1040000019784AF2D872C2F200020B00DB005B1A88
:104010005B00D31801331B78180006F02DFA03005B
:10402000BB603B1919784AF2D872C2F200020B0049
:10403000DB005B1A5B00D31802331B781A00B968E7
:104040004AF26C73C0F20403180008F08FF959E0CB
:104050000F243B1919784AF2D872C2F200020B0001
:10406000DB005B1A5B00D31801331B78180006F0E5
:1040700003FA0300BB603B1919784AF2D872C2F206
:1040800000020B00DB005B1A5B00D3180D331B78BA
:10409000180007F0B1FA03007B607A68B9684AF249
:1040A0007C73C0F20403180008F060F92AE00F24C2
:1040B0003B1919784AF2D872C2F200020B00DB00F9
:1040C0005B1A5B00D31801331B78180006F0D4F993
:1040D0000300BB603B1919784AF2D872C2F20002A1
:1040E0000B00DB005B1A5B00D31802331B781A004D
:1040F000B9684AF28873C0F20403180008F036F970
:1041000000E0C0460F217B181A787B1801321A7024
:104110000F23FA180E23FB1812781B789A4200D24C
:1041200015E74AF2D873C2F200031B781800BD46A7
:1041300004B0B0BD80B584B000AF786039600E23A4
:10414000FB1801221A700D23FB1801221A703B681C
:104150005B78092B00D9F4E09A00864BD3181B68D2
:104160009F467B681A78802149420A431A703B684F
:1041700099787B68AC2299540E23FB1800221A70A0
:10418000E7E03B689A78DB781B0213439BB2DBB90C
:104190007B68DB7807221340DBB2052B14D17B68E8
:1041A000B8220B2199547B68180004F0EEFD7B685F
:1041B000AD22002199547B68DA7807218A43111CCB
:1041C00004220A43DA706AE07B68AD229A5C3B689D
:1041D0009978DB781B020B439BB2DBB29A425ED02C
:1041E0000F23FB1800221A701FE07B68B0229A5838
:1041F0000F217B181B789B00D3181B6805331A7896
:104200003B689B789A420AD17B68B0229A587B1807
:104210001B789B00D3181A687B68B4215A500F2171
:104220007B181A787B1801321A707B68AE229B5C6F
:104230000F22BA1812789A42D7D33B689A78DB7863
:104240001B0213439BB2D9B27B68AD2299547B68A1
:10425000180003F019FC7B68DA7807218A43111CE7
:1042600005220A43DA703B689A78DB781B02134315
:104270009BB2DAB20C203B181A707B68D5229B5C8B
:10428000012B0CD17B68D8229B5843B17B68D82284
:104290009B587A68DC21525839180A2098470E2317
:1042A000FB1800221A7054E03B689A78DB781B02F6
:1042B00013439BB2012B49D17B68C0220021995442
:1042C0000E23FB1800221A7040E03B689A78DB78D6
:1042D0001B0213439BB2012B08D17B68C022012132
:1042E00099540E23FB1800221A7031E03B689A782B
:1042F000DB781B0213439BB2022B29D17B681B780E
:104300000E221340DBB2022B0DD10E23FB1800222C
:104310001A703B685A797B689A707B685A780121D9
:104320000A435A7014E00E23FB1801221A700FE0A2
:104330000D23FB1801221A700E23FB1801221A709C
:1043400007E00E23FB1801221A7002E0C04600E0CD
:10435000C0460D23FB181B783BB17A680E23FB186F
:104360001B781900100005F04EFEC046BD4604B093
:1043700080BDC046C4C00400B0B588B000AF78604E
:104380000A00BB1C1A801F23FB1800221A7000238E
:10439000BB6100237B6100233B610023FB607B68E2
:1043A0007B617B693A21180008F052F90300BB6178
:1043B000BB69002B37D0BA697B69D31A40F6C312A8
:1043C000934201DD40F6C31301333B613B692BB3DC
:1043D0003A69796948F22C23C2F20003180008F008
:1043E00055FA48F22C23C2F200033A699B180022C6
:1043F0001A703B699AB21F257C1948F22C23C2F22D
:1044000000031100180002F063FF030023707B1902
:104410001B7863B17B1903221A7008E01F23FB1875
:1044200003221A7003E01F23FB1803221A701F23B4
:10443000FB181B78002B4AD1BB6901337B617B6978
:104440003A21180008F004F90300BB61BB6933B9D5
:104450007B690A21180008F0FBF80300BB61BB6907
:104460008BB3BA697B69D31A0133FB60FB682BB34A
:10447000FA68796948F22C23C2F20003180008F0A8
:1044800005FA48F22C23C2F20003FA689B180022B6
:104490001A70FB689AB21F257C1948F22C23C2F2CD
:1044A000000311001800FFF753F9030023707B1974
:1044B0001B7863B17B1903221A7008E01F23FB18D5
:1044C00003221A7003E01F23FB1803221A701F2413
:1044D0003B191B78002B47D14AF69323C2F2000305
:1044E0001B78F02B40D1BB6901337B617B690A21CA
:1044F000180008F0ADF80300BB61BB6983B3BA696B
:104500007B69D31AFB60FB682BB3FA68796948F2C0
:104510002C23C2F20003180008F0B8F948F22C234B
:10452000C2F20003FA689B1800221A70FB689AB264
:1045300025003C1948F22C23C2F200031100180098
:1045400001F04DFC030023707B191B7863B17B19CC
:1045500003221A7008E01F23FB1803221A7003E0DD
:104560001F23FB1803221A701F23FB181B789BB90B
:104570004AF68C23C2F200031A8849F29063C2F211
:1045800000031900100003F035FD03001A004AF67D
:104590008C23C2F200031A801F23FB181B7818001B
:1045A000BD4608B0B0BD90B58BB000AF78600A00D2
:1045B000FB1C1A7027203B1800221A702623FB18B8
:1045C00000221A7025243B19FA1C12780F210A4088
:1045D0001A70FB1C1B785BB2DBB2DB09DAB2242356
:1045E000FB181A703B191B78012B03D93B18842246
:1045F0001A70DCE07B68013304D12723FB18832287
:104600001A70D4E07B683B623B6A5B6AFB612523DE
:10461000FB181B783A6A10339B00D31804331B68CD
:10462000BB613B6ADB7801225340DBB213B33B6AC8
:104630000E337B611223FB18012252421A807B69E0
:104640001B78012B04D17B6900221A70012300E042
:104650000023012B0AD13B6A9B7A5BB22622BC184D
:10466000180006F090FB0300237003E02723FB18DB
:1046700081221A702723FB181B785BB2002B00D015
:1046800095E02523FB181B784BBBFB6940F2041215
:10469000F7219954FB6940F207127F219954BB69B5
:1046A000DB7902229343DAB2BB69DA7104235A42FE
:1046B000BB691100180006F068FABB690833BB61DA
:1046C000BB69DB7902229343DAB2BB69DA71042356
:1046D0005A42BB691100180006F057FA51E0242431
:1046E0003B191B78DB00BA69D318BB61BB69DB7966
:1046F00002229343DAB2BB69DA7104235A42BB69DE
:104700001100180006F041FA3B191B78012B1CD14F
:1047100025217B181B78FA6908335B01D318043311
:1047200020221A707B181B78FA6908335B01D318B2
:10473000073340221A707B181B78FA6908335B0133
:10474000D318043302221A701BE025217B181B7832
:10475000FA6908335B01D318043310221A707B18EE
:104760001B78FA6908335B01D318073320221A70CB
:104770007B181B78FA6908335B01D31804330122D4
:104780001A703B6ADB7801225340DBB27BB12623EF
:10479000FB181B782BB13B6A9B7A5BB2180006F0C2
:1047A00027FE3B6A0E33FB60FB6801221A70272349
:1047B000FB181B785BB21800BD460BB090BDF0B57E
:1047C00089B000AFF860B9607A601F23FB18F0224F
:1047D0001A701C23FB1840F200421A801A23FB189F
:1047E00001221A801223FB1801221A801823FB18B9
:1047F00000221A801123FB18FF221A707B680BB16C
:10480000BB680BB9E223DEE07B6800221A804AF61F
:104810009423C2F200031B78112B3AD1BB681A789B
:104820001123FB181A701A23FB1802221A800A237C
:104830007B61BB6801331B789BB21B0299B2BB68DA
:1048400002331B789AB21C23FB188A181A800EE0D8
:104850001F257C191223FA181123F918FB68180078
:1048600005F00DFC030023707B191B7853B97B699D
:104870005A1E7A61002B06DD1F23FB181B78002BC4
:10488000E6D100E0C0461F23FB181B78002B00D0A8
:104890008EE01122BB181B78102B03D0BB181B789D
:1048A000FF2B55D11F257C191A26BB191A88B96808
:1048B000FB68180006F094F9030023707B191B783D
:1048C000002B00D076E0BB191B88012B03D1BB68FD
:1048D0001B789BB20AE0BB681B789BB21B029AB2A2
:1048E000BB6801331B789BB2D3189BB218217A188E
:1048F00013807A181C23FB1812881B889A4204D94B
:104900001F23FB18ED221A7055E01A23FB181B8891
:104910009A1C1823FB181B889A4204DB1F23FB18E0
:10492000E6221A7047E01A203B181B88BA68D11893
:104930001823FA183B1812881B88D31A9AB21F231F
:10494000FC18FB68180006F04BF90300237032E0F6
:104950001122BB181B78302B08D0BB181B78B02B4A
:1049600004D01C23FB181B88012B0FD118217B18A6
:1049700001221A801F23FC187B181A88B968FB686B
:10498000180006F02DF90300237014E018217B189D
:104990001C22BA1812881A801F23FC187B181A8848
:1049A000B968FB68180006F01BF90300237002E0E9
:1049B000C04600E0C0467B681822BA1812881A80E8
:1049C0001F23FB181B781800BD4609B0F0BD7047C7
:1049D00090B587B000AF7860396000233B61162343
:1049E000FB1800221A800023BB601523FB1801224C
:1049F0001A707B68DB68FB603B685B78062B00D035
:104A00007AE03B68DB780F2B00D9B4E09A00714B59
:104A1000D3181B689F467B681B780E221340DBB2BD
:104A2000022B03D1FB68DB68BB6002E0FB681B68FC
:104A3000BB601623FB1812221A80A1E03B689A780B
:104A40007B68AE215B5C9A4200D396E07B68B02223
:104A50009A583B689B789B00D3181B683B613B6965
:104A600053B13B69BB601623FA183B699978DB7830
:104A70001B020B43138080E00023BB607DE07B685A
:104A80001B7870221340DBB2102B0AD11523FB18C0
:104A900000221A703A687B681100180003F001FFC9
:104AA0006EE01523FB1801221A7069E07B681B7801
:104AB00070221340DBB2102B61D17B681B780E2271
:104AC0001340DBB2022B03D1FB681B6ABB6002E020
:104AD000FB685B6ABB601623FB180A221A804EE053
:104AE0001623FC180823FA183968FB68180002F02E
:104AF000B2F80300238043E03B685B78082B07D1C2
:104B00007B68AD33BB601623FB1801221A8037E0A7
:104B10003B685B78A3BB7B68BC22002199527B6811
:104B20001B78DB07DB0FD9B27B68BC220120014078
:104B30000C00995C01208143081C211C01439954FD
:104B40007B68C0229B5C1A1C01231340D9B27B688E
:104B5000BC22012001404C18995C02208143081CB2
:104B6000211C014399547B68BC33BB601623FB189E
:104B700002221A8004E0C04602E0C04600E0C046BF
:104B80001523FB181B780BB3BB682BB97B6801217D
:104B9000180005F038FA19E03B689A79DB791B02B6
:104BA00013439BB216217A1812889A4206D97A18B2
:104BB0003B689979DB791B020B4313807868B968ED
:104BC0001623FB181B881A0005F06EF8C046BD4678
:104BD00007B090BD78B5040090B589B000AFF8601B
:104BE0007A600B203B180A1C1A70FB68FB61FB699A
:104BF0001B7A5BB2002B00DCDEE03B181B78092B34
:104C000000D9BDE09A006E4BD3181B689F46FB6924
:104C10005A7804218A435A70FB69E4229B581A6C23
:104C2000FB69DB69002118009047FB69E4229B586F
:104C30001A6CFB69DB69802118009047FB6918003A
:104C400004F0A3F8FB69E4229B585A6AFB69DB690C
:104C5000102118009047FB69E4229B581C6AFB69ED
:104C6000D869802140230022A047FB6990229B56EF
:104C7000022B0ADCFB69E4229B589C6BFB69D86918
:104C80000021FB6988331A00A047FB69DA78072105
:104C90008A43111C03220A43DA70FB69E4229B5801
:104CA0001A69FB69DB691800904703001A1C072387
:104CB0001340DAB2FB6907210A4090181A780E21D6
:104CC0008A43111C021C0A431A70FB69DB68BB6132
:104CD000FB691B780E221340DBB2022B0AD1BB69A1
:104CE0005A69FB69B0215A50BB69197CFB69AE2235
:104CF000995409E0BB699A68FB69B0215A50BB69B5
:104D00001979FB69AE229954FB69AD2200219954AF
:104D100039E0FB695A7804218A435A7033E0FB6911
:104D20005A7804210A435A702DE00B217B187A1817
:104D300012781A700A00BB181B781BB3BB18072225
:104D40001A70FB69E4229B585A69FB69DB691800F9
:104D5000904703001A0014217B181A807B187B608F
:104D600010E0FB69DA7807218A43111C01220A430B
:104D7000DA7008E0FB69DA7807218A43DA7002E02A
:104D8000C04600E0C0460B203B181B78ABB1FB6966
:104D9000D5229B5C012B10D1FB69D8229B5863B1B3
:104DA000FB69D8229B58FA69DC21545879683A1873
:104DB00010782200984700E0C046BD4609B090BD7B
:104DC0009CC0040080B588B000AF78604AF67023BC
:104DD000C2F200037A681A601F23FB1800221A70BF
:104DE0001E23FB1800221A701C23FB1800221A70C5
:104DF0001B23FB1800221A7066E01B23FB181B788C
:104E0000180007F0B9F803007B614AF69523C2F257
:104E100000031B7883B37B699B781A007B689342FD
:104E20004CD17B691A784AF69523C2F200031B78AD
:104E30009A4243D11C23FB187A6992781A701F2377
:104E4000FB187A6912781A701E217B187A695278D9
:104E50001A704AF69423C2F200037A1812781A7074
:104E60001D23FB187A69527B1A704AF69523C2F209
:104E7000000300221A702CE07B699B781A007B6883
:104E800093421BD11C23FB187A6992781A701F2356
:104E9000FB187A6912781A701E217B187A69527889
:104EA0001A704AF69423C2F200037A1812781A7024
:104EB0001D23FB187A69527B1A700AE01B217B18AC
:104EC0001A787B1801321A701B23FB181B78072BEA
:104ED00093D91F22BB181B78022B03D0BB181B7859
:104EE000042B23D11E23FB181B78180005F0C4FAED
:104EF00003003B611D23FB181B78180006F07CFBA8
:104F00000300FB601F23FB181A784AF64423C2F201
:104F100000039200D1581C23FB181B783A6949F210
:104F2000D040C0F2040007F021FA36E01F22BB187F
:104F30001B78032B03D0BB181B78012B21D11E2318
:104F4000FB181B78180005F097FA03003B611D233E
:104F5000FB181B78180006F04FFB0300FB601F23B3
:104F6000FB181A784AF64423C2F200039200D15883
:104F7000FB683A6949F2E440C0F2040007F0F6F930
:104F80000BE049F2F842C0F2040249F20853C0F2C1
:104F900004031100180007F0E9F91F23FB181B7820
:104FA000180006F090FDC046BD4608B080BD90B523
:104FB0008BB002AFF860B9607A601E23FB18002244
:104FC0001A801D243B1903221A70BB681B78180035
:104FD00006F0D2FF0300BB61BB692BB93B19C522A8
:104FE0001A703B191B78D0E0BB695B78180005F09C
:104FF00043FA03007B617B6933B17A69BB681100B6
:10500000180007F03DFC35E0BB695B783BBB4AF616
:105010004423C2F200031A68BB681100180007F0AD
:105020002FFCBB68180007F09AFB02001E217B18BA
:105030001A807B181B88BA68D01849F21843C0F24E
:1050400004030A22190007F09CFABB68180007F055
:1050500086FB03009AB27B681A80C52395E0BA6884
:1050600049F21C43C0F20403100019000F231A0078
:1050700007F014FBBB691B78022B12D14AF64423BC
:10508000C2F200039A68BB681100180007F084FAA6
:10509000BB68180007F063FB02001E23FB181A8090
:1050A00058E0BB691B78032B12D14AF64423C2F2A5
:1050B0000003DA68BB681100180007F06DFABB68DE
:1050C000180007F04CFB02001E23FB181A8041E079
:1050D000BB691B78042B12D14AF64423C2F20003A9
:1050E0001A69BB681100180007F056FABB6818006F
:1050F00007F035FB02001E23FB181A802AE0BB696B
:105100001B78012B12D14AF64423C2F200035A68DD
:10511000BB681100180007F03FFABB68180007F0E1
:105120001EFB02001E23FB181A8013E04AF64423DC
:10513000C2F200031A68BB681100180007F02CFACD
:10514000BB68180007F00BFB02001E23FB181A8037
:10515000C5231AE01E23FB181B88BA68D018BB6948
:105160009B781A0049F22C41C0F204010A230093F3
:105170001300002207F005FABB68180007F0EFFAE9
:1051800003009AB27B681A8000231800BD4609B05C
:1051900090BDB0B588B004AF786039600C23FB18BF
:1051A00000221A800F23FB1800221A707B681B78DC
:1051B000012B3AD001DC33B1CDE0022B67D0032BB9
:1051C00000D196E0C7E07A684CF2E033C0F2040305
:1051D0001000190019231A0007F060FA7B68180004
:1051E00007F0BDFA02000C217B181A807B181B887F
:1051F0007A68D01803231D0000231A0004231C0022
:1052000049F20041C0F204010A2302930194009282
:105210002B00002207F0B5F97B68180007F09FFA11
:1052200003009AB23B681A809AE07A684CF2847361
:10523000C0F204031000190009231A0007F02EFA27
:105240007B68180007F08BFA02000C217B181A808B
:105250007B181B887A68D01801231D0004231A00CC
:1052600000231C0049F20041C0F204010A2302930A
:10527000019400922B00002207F083F97B6818004C
:1052800007F06DFA03009AB23B681A8068E07A680A
:105290004CF29073C0F204031000190009231A00A5
:1052A00007F0FCF97B68180007F059FA02000C219E
:1052B0007B181A807B181B887A68D01801231D0080
:1052C00001231A0000231C0049F20041C0F204012E
:1052D0000A230293019400922B00002207F051F957
:1052E0007B68180007F03BFA03009AB23B681A800B
:1052F00036E07A684CF29C73C0F204031000190087
:1053000009231A0007F0CAF97B68180007F027FA8A
:1053100002000C217B181A807B181B887A68D01831
